:020000040800F2
:100000001808002081020008A7260008191F000810
:10001000A52600087F0500086B2F000800000000DF
:10002000000000000000000000000000BF290008E0
:100030008105000800000000A9260008C129000869
:100040009B0200089B0200089B0200089B0200081C
:100050009B0200089B0200089B0200089B0200080C
:100060009B0200089B0200089B0200089B020008FC
:100070009B0200089B0200089B0200089B020008EC
:100080009B020008000000009B0200089B02000881
:100090009B0200089B0200089B0200089B020008CC
:1000A0009B0200089B0200089B0200089B020008BC
:1000B0003D2A0008492A0008552A00089B0200082A
:1000C0009B0200089B0200089B0200089B0200089C
:1000D0009B0200089B0200089B0200089B0200088C
:1000E0009B0200089B0200089B0200089B0200087C
:1000F0009B0200089B0200089B0200080000000011
:10010000000000009B020008000000009B020008A5
:100110009B020008000000009B0200089B020008F0
:100120009B0200089B0200089B0200089B0200083B
:100130009B02000800000000000000009B02000875
:100140009B0200089B020008000000000000000065
:10015000000000000000000000000000000000009F
:100160000000000000000000000000009B020008EA
:100170009B020008000000000000000000000000DA
:10018000000000009B0200080000000000000000CA
:10019000000000000000000000000000000000005F
:1001A00000000000000000009B0200089B02000805
:1001B0009B0200089B0200089B0200080000000050
:1001C000000000009B02000800000000000000008A
:1001D0009B0200089B02000800F002F800F041F8C2
:1001E0000AA090E8000C82448344AAF10107DA4592
:1001F00001D100F036F8AFF2090EBAE80F0013F0A3
:10020000010F18BFFB1A43F0010318471841000003
:1002100038410000103A24BF78C878C1FAD8520794
:1002200024BF30C830C144BF04680C607047000070
:100230000023002400250026103A28BF78C1FBD8EF
:10024000520728BF30C148BF0B607047642900F0D7
:100250007F80002070471FB502F06EFF1FBD10B5F4
:1002600010BD00F052F91146FFF7F5FF02F08EFEC7
:1002700000F070F903B4FFF7F2FF03BC00F078F967
:100280000948804709480047FEE7FEE7FEE7FEE72A
:10029000FEE7FEE7FEE7FEE7FEE7FEE70448054966
:1002A000054A064B704700002D2A0008D9010008B6
:1002B000180200201808002018040020180400204C
:1002C0000FB41CB5074B06AA7B44694600900598FD
:1002D00000F003F90020694600F012F91CBC5DF83B
:1002E00014FB0000350200002DE9F0410E460446E3
:1002F000002020622046E168884730B3252805D0D9
:10030000D4E901219047206A401CF2E7E1682046C9
:1003100000278847050018D0A5F14100192802D808
:1003200020354FF400673246294620462760FFF704
:100330008DFF40B1012804D0F61D26F007060836CF
:10034000D8E7361DD6E72846DAE7206ABDE8F0810F
:100350002DE9F0410646002410687529314616A59E
:1003600010D0AFF30080002802DA404213A507E066
:1003700031688A0701D512A502E0490704D511A505
:10038000012401E0AFF3008000210A2206F12407D6
:1003900009E0B0FBF2FCB0FBF2F302FB1C003030D2
:1003A00078541846491C0028F3D123462A46304683
:1003B000BDE8F04100F032B8000000002D00000060
:1003C0002B000000200000004FF0000200B5134693
:1003D00094469646203922BFA0E80C50A0E80C5065
:1003E000B1F12001BFF4F7AF090728BFA0E80C5016
:1003F00048BF0CC05DF804EB890028BF40F8042B0F
:1004000008BF704748BF20F8022B11F0804F18BF7B
:1004100000F8012B70477047704770472DE9F0478F
:100420000D4699469246044600F124080168880664
:1004300004D5E06921F01001216000E00120A8420C
:1004400001DD471B00E00027A1697A1902EB0900D2
:10045000081AA0612078C00602D42046AFF30080BD
:10046000002608E0D4E901211AF806009047206A26
:10047000401C761C20624E45F4DB2078C0060AD56D
:100480002046AFF3008006E0D4E9012130209047F8
:10049000206A401C2062381EA7F10107F4DC07E047
:1004A000D4E9012118F805009047206A401C206219
:1004B000281EA5F10105F3DC2046AFF3008020786B
:1004C000000602D50220BDE8F0870120FBE700000E
:1004D00001694A1C02610878704700B58FB0CDE908
:1004E00001310021059105497944CDE903101146F8
:1004F0006846FFF7F9FE0FB000BD0000E5FFFFFF03
:100500000A6802F8010B0A607047754600F02CF883
:10051000AE4605006946534620F00700854618B0F0
:1005200020B5FFF7BBFEBDE820404FF000064FF0BE
:1005300000074FF000084FF0000B21F00701AC4618
:10054000ACE8C009ACE8C009ACE8C009ACE8C00937
:100550008D46704710B50446AFF300802046BDE8D5
:100560001040FFF787BE000000487047B801002028
:1005700001491820ABBEFEE7260002007047FEE7E7
:100580007047002240F6B83306E00021491C89B2CA
:100590009942FBD3521C92B28242F6D3704772B694
:1005A000FEE7000070B5044600F03CF90546601C0B
:1005B00002D004484068044400F034F9401BA042D3
:1005C000FAD370BD040000202DE9F04FDFF820922F
:1005D000002301260324A9F1040B85B00F2709F19C
:1005E000040AABF1040EFAE006FA03F52A407CD0C7
:1005F00091F804C00CF0030CBCF1010F02D0BCF167
:10060000020F26D1D0F808C0CDF800C04FEA430C45
:1006100004FA0CF8CDF810C0DDF800C02CEA080C84
:10062000CDF800C0D1F80C80DDF810C008FA0CF845
:10063000DDF800C048EA0C08C0F80880D0F804C013
:100640002CEA050C0D79C5F300159D4045EA0C0513
:1006500045600D79ED43AD070ED0C5684FEA4308FC
:1006600004FA08FC25EA0C05D1F808C00CFA08FCCD
:100670004CEA050CC0F80CC00D7905F00305022DFD
:1006800016D1DD0800EB850CCDF808C0DCF8208021
:100690005D074FEAD56C07FA0CF528EA05080D69E5
:1006A00005FA0CF5DDF808C045EA0805CCF820503D
:1006B00005684FEA430CCDF808C004FA0CFC25EAA3
:1006C0000C0591F804C00CF00308DDF808C008FA26
:1006D0000CF848EA0508C0F800804D6815F4403F62
:1006E0007CD0444DD5F860C000E077E04CF0010CC0
:1006F000C5F860C02D6E23F0030C05F001050095D0
:100700003D4D65440295AD684FEA837C4FEA1C7805
:1007100007FA08FC25EA0C05B0F1904F06D0DFF887
:10072000DCC0604505D14FF0010C20E04FF0000C1B
:100730001DE0DFF8CCC0604502D14FF0020C16E09E
:10074000DFF8C0C0604502D14FF0030C0FE0DFF8C6
:10075000B8C0604502D14FF0040C08E0DFF8ACC02F
:10076000604502D14FF0050C01E04FF0060C0CFA89
:1007700008FC4CEA050C029DC5F808C0D9F80050E9
:10078000CC46D1F8048095435FEAC82800D51543CC
:10079000CCF80050DAF80050D446D1F804809543E4
:1007A0005FEA882800D51543CCF80050DBF80050EC
:1007B000DC46D1F8048095435FEA883800D51543BC
:1007C000CCF80050DEF80050F446D1F80480954390
:1007D0005FEAC83800D51543CCF800505B1C0A68A6
:1007E00032FA03F57FF400AF05B0BDE8F08F0000EA
:1007F00008040140001002400000014000040048CD
:1008000000080048000C0048001000480014004890
:100810000069084000D0012070470AB1816170472B
:100820008162704701488068704700000400002022
:1008300002488168426811448160704704000020CA
:1008400010B50024032000F073F80F2000F008F822
:1008500008B1012401E000F025F8204610BD000099
:1008600070B50E4E05460024706898B14FF47A7149
:10087000B1FBF0F00A490968B1FBF0F000F0FCFBB5
:1008800040B9102D06D200222946501E00F030F843
:10089000356000E00124204670BD00000400002007
:1008A000100000200A4882B0016E41F0010101668B
:1008B000016E01F001010091816D41F0805181656F
:1008C000806D00F08050009002B000F0A1B80000F0
:1008D00000100240002809DB00F01F0201219140B6
:1008E0004009800000F1E020C0F8001170470000CE
:1008F000F0B40E4B1B680C46C3F30223C3F107058B
:10090000042D00D90425191D072901D2002300E078
:10091000DB1E012606FA05F1491E214099409E4042
:10092000761E16403143F0BC02F020BB0CED00E017
:10093000064900F0070208684FF6FF03184040EA36
:100940000220034A10430860704700000CED00E0ED
:100950000000FA052B492C4B0A6832214A432B49E7
:1009600040B1B0F5007F086829D020F4C06040F4A1
:1009700080602CE00868C0F34120022804D051F8C0
:10098000800F20F4807022E0D1F8800020F4807085
:10099000C1F88000086820F4C06040F4007008606E
:1009A000B2FBF3F0401C00E0401E4A69520501D53D
:1009B0000028F9D1486940050AD503207047C0F3E3
:1009C0004120022806D051F8800F40F48070086062
:1009D00000207047D1F8800040F48070C1F880009A
:1009E000086820F4C06040F400700860B2FBF3F0C7
:1009F000401C00E0401E4A695205DBD50028F9D1B1
:100A0000D8E700001000002040420F0000700040B6
:100A10000248816841F48041816070470070004065
:100A20002DE9F0470E4605004FF0000725D0DFF80E
:100A3000AC81D8F8000000F00F00B0420CD2D8F81A
:100A4000001021F00F013143C8F80010D8F8000061
:100A500000F00F00B04210D12968614CC80741F284
:100A6000883A5AD06868DFF87C91032808D00228B9
:100A700020682DD0400500282CDB0120BDE8F08740
:100A800020688001F9D5E06800F00302E068C0F357
:100A90000310401C032A19D0534A00BFB2FBF0F0E8
:100AA000E268C2F306225043E268C2F34162521C7C
:100AB0005200B0FBF2F0484517D9A06810F0F00FD3
:100AC0000CD0880711D5A86840B10EE0474AE5E789
:100AD0008003D0E700F092F8484506D9A06820F0DE
:100AE000F00040F08000A0608027A068696820F0D6
:100AF00003000843A060FFF795FE814606E000BFB3
:100B0000FFF790FEA0EB090151453AD8A06869684B
:100B100000F00C00B0EB810FF2D12868810714D5EA
:100B2000400703D5A06840F4E060A0602878000783
:100B300005D5A06820F4605040F4E060A060A06893
:100B4000A96820F0F000084304E0802F03D1A068DA
:100B500020F0F000A060D8F80010404601F00F012E
:100B6000B14216D9016821F00F0131430160FFF74E
:100B700059FE074607E000BFFFF754FEC11B514571
:100B800001D903207AE7D8F8000000F00F00B04246
:100B9000F2D12878400705D5A068E96820F4E06024
:100BA0000843A0602878000706D5A068296920F4CA
:100BB000605040EAC100A06000F020F8A1680C4A33
:100BC000C1F30311515C01F01F01C84009490860DD
:100BD00009480068BDE8F047FFF742BE0020024028
:100BE0000010024000B4C4040024F40000366E017A
:100BF000423100081000002004000020184910B500
:100C00008868C0F381021748012A0BD08A68164B06
:100C1000C2F38102022A06D08A68C2F38102032A43
:100C200003D0002010BD184610BDCA6802F00304AE
:100C3000CA68C2F30312521C032C02D0B0FBF2F0BC
:100C400001E0B3FBF2F0CA68C968C2F30622504360
:100C5000C1F34161491C4900B0FBF1F010BD000037
:100C6000001002400024F40000366E012DE9F84324
:100C700004007AD02078FA4DC00747D0A868E96808
:100C800000F00C0001F003010C2802D0082817D056
:100C900001E0032914D06068B0F5803F17D0B0F5AB
:100CA000A02F286817D020F480302860286820F40E
:100CB000802028606068E0B1FFF7B4FD064614E0CC
:100CC0002868800322D560680028D2D01EE02868FA
:100CD00040F48030EDE740F480202860F7E700BF63
:100CE000FFF7A0FD801B642870D828688003F7D523
:100CF0000CE0FFF797FD064605E000BFFFF792FD09
:100D0000801B6428F0D828688003F7D420788007F7
:100D10004CD5A868E96800F00C0001F003010C282C
:100D200002D004280DD001E002290AD0E068002892
:100D300028682BD040F480702860FFF773FD0646CA
:100D400019E02868400502D5E068002891D068685D
:100D5000217C20F0FE4040EA01606860C1480068E4
:100D6000FFF77EFD002800D120E076E1FFF75AFD75
:100D7000801B0228B8D828684005F7D56868217C10
:100D800020F0FE4040EA016068600FE020F48070CF
:100D90002860FFF747FD064605E000BFFFF742FD6C
:100DA000801B0228A0D828684005F7D420780007C7
:100DB00029D560690028D5F8940013D040F00100CF
:100DC000C5F89400FFF72EFD064606E090E000BF50
:100DD000FFF728FD801B022886D8D5F894008007ED
:100DE000F6D510E020F00100C5F89400FFF71AFDD9
:100DF000064604E0FFF716FD801B022878D8D5F8D8
:100E000094008007F6D42078400761D5A86D0026AD
:100E1000C00008D4A86D40F08050A865A86D0126D8
:100E200000F08050009090480168C90511D4016815
:100E3000804641F480710160FFF7F4FC074604E04E
:100E4000FFF7F0FCC01B022852D8D8F80000C005FC
:100E5000F6D5A068012815D00528D5F8900016D041
:100E600020F00100C5F89000D5F8900020F00400B3
:100E7000C5F89000A06841F28838B8B1FFF7D2FCFD
:100E800007460EE0D5F8900040F00100F0E740F092
:100E90000400C5F89000F5E7FFF7C4FCC11B41450D
:100EA00026D8D5F890008007F6D50CE0FFF7BAFCFD
:100EB000074604E0FFF7B6FCC11B414518D8D5F83A
:100EC00090008007F6D41EB1A86D20F08050A86570
:100ED0002078800629D5A0690028D5F8980013D07D
:100EE00040F00100C5F89800FFF79CFC064606E0BC
:100EF00077E000BFFFF796FC801B022877D8D5F873
:100F000098008007F6D510E020F00100C5F89800A1
:100F1000FFF788FC064604E0FFF784FC801B0228EC
:100F200065D8D5F898008007F6D4E069F0B3A968D1
:100F3000C1F38101032961D00228286820F0807064
:100F400028600BD0E86820F00300E860E8684749B3
:100F50000840E860FFF766FC04464BE0FFF762FCE0
:100F6000064604E0FFF75EFC801B02283FD8286895
:100F70008001F7D4F4E908016FF00F0202EB0111D0
:100F80000843218A5204490802EB4151A26841EA10
:100F900002210843217D4FF07E42490802EB416166
:100FA0000843217B40EAC160E96800E062E0304A22
:100FB00011400843E860286840F080702860E868C5
:100FC00040F08070E860FFF72DFC044605E000BFAC
:100FD000FFF728FC001B022809D828688001F7D5F4
:100FE00048E004E0FFF71EFC001B022802D90320A2
:100FF000BDE8F88328688001F4D43BE00128F7D0ED
:10100000E868226A00F00301914226D1616A00F08B
:10101000F0020901103991421FD1A26A00F4FE4189
:10102000B1EB022F19D194F82C2000F07841B1EBEC
:10103000C26F12D1218E00F4C00249084905A1F502
:101040000011914209D194F8341000F0C0604908B1
:101050004906A1F1007181420CD00120C8E70000CF
:10106000001002400400002000700040FFFFEEFE70
:101070000C809F010020BBE710B5401EB0F1807FBF
:1010800001D3012010BD4FF0E02460610F216017F3
:1010900001F06CFF0020A06107202061002010BD3E
:1010A0007047704770470000F0B590F83C20012A67
:1010B0004AD0012280F83C20CA688B6822F4407232
:1010C0001A434B6822F480621A430B6822F40062D0
:1010D0001A430B6922F480521A434B6922F40052DE
:1010E0001A430B6B22F480421A430B8B22F47022BA
:1010F00042EA0342154C03680026154DA34201D075
:10110000AB4203D1CF6922F080523A43A34201D0CF
:10111000AB4214D10F8D22F4700242EA07520F6ADB
:1011200022F080723A434F6A22F000723A43A3429F
:1011300001D0AB4203D1C96A22F000520A435A647B
:1011400080F83C600020F0BD0220F0BD002C014082
:10115000003401407047704770470000F0B590F8C8
:101160003C20012A3AD0012580F83C50022280F828
:101170003D2003685A689C68194E1A4FB34201D04B
:10118000BB4204D122F4700C4A6842EA0C02DFF838
:1011900058C002EA0C02D1F800C04CEA020CC3F8B5
:1011A00004C00268B2420DD0B2F1804F0AD00F4B9A
:1011B0009A4207D00E4B9A4204D0BA4202D00D4B4D
:1011C0009A4204D1896824F080031943916080F821
:1011D0003D50002180F83C100846F0BD0220F0BDD3
:1011E000002C0140003401408FFFFFFD000400404F
:1011F0000008004000400140704710B5040003D0D3
:1012000094F83D0010B107E0012010BD002084F8E3
:101210003C00204600F022F8022084F83D00211D09
:10122000206801F01DFC012084F8480084F83E008D
:1012300084F83F0084F8400084F8410084F84200BC
:1012400084F8430084F8440084F8450084F846009C
:1012500084F8470084F83D00002010BD10B586B02A
:10126000044614216846FFF7AFF82A4A21682A4845
:10127000914222D1816D41F002018165816D01F0C1
:1012800002010591C16C41F00201C164C06C0021F2
:1012900000F002000590102000900220CDE901012D
:1012A000CDE9031069461D48FFF78EF9002211466B
:1012B0001D20FFF71DFB1D2010E0194A914211D19E
:1012C000816D41F004018165806D002200F0040011
:1012D000059011461E20FFF70BFB1E20FFF7FAFAC0
:1012E00006B010BD0F4A914207D1016E41F40031A2
:1012F0000166006E00F4003009E00B4A9142EFD124
:10130000016E41F480210166006E00F4802005909A
:10131000E6E700000004004000100240000400481E
:1013200000080040004401400048014090F83D1092
:10133000012901D001207047022180F83D10016889
:10134000CA6842F00102CA600068104988420ED0A3
:10135000B0F1804F0BD00E49884208D00D49884229
:1013600005D00D49884202D00C49884207D18168D6
:101370000B4A1140062906D0B1F5803F03D0016821
:1013800041F001010160002070470000002C014085
:1013900000040040000800400034014000400140CB
:1013A0000700010070B5044690F83C0000250128B4
:1013B00014D0012684F83C60022084F83D002268A5
:1013C0009068364B184020F47F4090600868702881
:1013D0002ED010DC10F00F0F03D021E04FF00200F0
:1013E00070BD4FEA2012072A1AD2DFE802F05252EB
:1013F00052524A3840002A4BC21A984249D009DC5E
:10140000B0F5805F0DD0B0F5005F1CD0B0F1101FBB
:1014100006D13EE0102A3CD0202A3AD0502A38D0BB
:10142000012584F83D60002084F83C00284670BD0A
:10143000CB68D1E90121206801F077FB2068816841
:1014400041F0770109E0CB68D1E90121206801F082
:101450006CFB2068816841F480418160E1E7CA68E3
:101460004968206801F00CFD5021206806E0CA6838
:101470004968206801F04CFD6021206801F060FBA4
:10148000CFE7CA684968206801F0FAFC402120686B
:10149000F4E7226801461046F0E7000088FFCEFF1F
:1014A000200010002DE9F041054600680026154C8B
:1014B000154FB0F1804F0ED10021284600F016FDE7
:1014C00080B2A08029684E62B7FBF0F0E080002176
:1014D000284600F015F90D492868884210D10021EE
:1014E000284600F003FD80B2208029684E62B7FBD9
:1014F000F0F060802846BDE8F041002100F000B91E
:10150000BDE8F0811A00002040420F0000040040B6
:101510002DE9F041054690F83C0000260C460128D4
:1015200010D0012085F83C0072B1042A1CD0082A92
:101530002CD00C2A50D00126002085F83C003046E3
:10154000BDE8F0810220FBE7D4E90012E3682868D7
:1015500001F0A8FC2868816921F00C0181612868EC
:101560008169A26811430FE0D4E90012E36828689A
:1015700001F0E0FC2868816921F4406181612868FC
:101580008169A26841EA02218161D5E72868D4E92E
:10159000002C277B016A21F480710162C169036A12
:1015A00021F0030141EA0C0121F0F00C39074FF45E
:1015B00020674CEA116123F4206307EA02221A43F0
:1015C000C16102622868C16921F00C01C16128680B
:1015D000C169A268114328E02868D4E90027E168BE
:1015E000036A23F480530362D0F81CC0036A2CF40E
:1015F000407C4CEA07274FF6FF7C27F470470CEA43
:10160000013139434FF4204723F4204307EA0232E3
:101610001A43C16102622868C16921F44061C16155
:101620002868C169A26841EA0221C16184E710B556
:10163000040003D094F83D0010B107E0012010BD74
:10164000002084F83C00204600F022F8022084F8B4
:101650003D00211D206801F003FA012084F84800B4
:1016600084F83E0084F83F0084F8400084F841008C
:1016700084F8420084F8430084F8440084F845006C
:1016800084F8460084F8470084F83D00002010BD2F
:1016900010B586B0044614216846FEF795FE206812
:1016A000B0F1804F27D11548816D41F0010181656E
:1016B000816D01F001010591C16C41F00101C1642E
:1016C000C06C694600F0010005904FF400400090A6
:1016D00002200190002002900390012004904FF01E
:1016E0009040FEF771FF002211461C20FFF700F921
:1016F0001C20FFF7EFF806B010BD000000100240FC
:1017000010B5044679B1042912D0082915D00C2946
:1017100018D0102919D094F8430000BF94F847203E
:10172000012817D114E094F83E0094F84420F7E71C
:1017300094F83F0094F84520F2E794F8400094F8BC
:101740004620EDE794F84100E8E794F84200E5E729
:10175000012A01D0012010BD022081B3042934D018
:10176000082937D00C293AD010293BD084F84300FF
:1017700084F847000122206801F0CAF91B4920685B
:1017800088420ED0B0F1804F0BD01949884208D062
:101790001849884205D01849884202D01749884222
:1017A00007D18168164A1140062906D0B1F5803F5D
:1017B00003D0016841F001010160002010BDFFE786
:1017C00084F83E0084F84400D4E784F83F0084F8AD
:1017D0004500CFE784F8400084F84600CAE784F863
:1017E0004100C5E784F84200C2E70000002C014038
:1017F0000004004000080040003401400040014067
:101800000700010030B50446002571B1042911D04C
:10181000082914D00C2917D0102918D094F84300A7
:1018200094F84720012817D114E094F83E0094F86A
:101830004420F7E794F83F0094F84520F2E794F845
:10184000400094F84620EDE794F84100E8E794F86A
:101850004200E5E7012A01D0012030BD022079B124
:10186000042916D008291DD00C2949D010294AD0A6
:1018700084F8430084F847000C2947D001253DE057
:1018800084F83E0084F844002068C26842F00202F6
:1018900010E084F83F0084F845002068C26842F0F8
:1018A000040207E084F8400084F846002068C2681B
:1018B00042F00802C2600122206801F029F91649AD
:1018C000206888420ED0B0F1804F0BD01349884277
:1018D00008D01349884205D01249884202D01249E3
:1018E000884207D18168114A1140062906D0B1F516
:1018F000803F03D0016841F001010160284630BDFE
:1019000084F84100B6E784F84200B3E72068C26873
:1019100042F01002CEE70000002C0140000400401D
:101920000008004000340140004001400700010071
:1019300070B50446006801694FF00005C943890786
:1019400015D4C168C943890711D4E91E016101207A
:101950002077206880698007204602D0FFF7A2FD2B
:1019600004E000F01BF9204600F0DDF9257720683F
:101970000169C943490717D4C168C943490713D44A
:101980006FF004010161022020772068806910F463
:10199000407F204602D0FFF785FD04E000F0FEF80E
:1019A000204600F0C0F9257720680169C94309077E
:1019B00016D4C168C943090712D46FF00801016148
:1019C000042020772068C0698007204602D0FFF7F6
:1019D00069FD04E000F0E2F8204600F0A4F9257764
:1019E00020680169C943C90617D4C168C943C9063B
:1019F00013D46FF010010161082020772068C069BE
:101A000010F4407F204602D0FFF74CFD04E000F0C8
:101A1000C5F8204600F087F9257720680169C94399
:101A2000C90708D1C168C943C90704D1891E01612A
:101A3000204600F0F7F920680169C943090609D476
:101A4000C168C943090605D46FF0800101612046D1
:101A5000FFF727FB20680169C943C90509D4C1689C
:101A6000C943090605D46FF4807101612046FFF770
:101A700017FB20680169C943490609D4C168C943F5
:101A8000490605D46FF040010161204600F043FA99
:101A900020680169C943890609D4C168C943890618
:101AA00005D46FF0200101612046FFF7FBFA2068A2
:101AB0000169C943C90209D4C168C943C90205D42F
:101AC0006FF4801101612046FFF745FB2068016932
:101AD000C943890209D4C168C943890205D46FF496
:101AE000001101612046FFF735FB20680169C943F9
:101AF000490209D4C168C943490205D46FF4800181
:101B000001612046FFF728FB20680169C9430902EB
:101B10000BD4C168C943090207D46FF40001016105
:101B20002046BDE87040FFF767BB70BD70B586B05A
:101B3000044614216846FEF747FC154E256800222E
:101B40001449022401234FF09040B54209D1CD6CD5
:101B500045F00105CD64C96C01F0010105914021FA
:101B60000BE00D4EB54210D1CD6C45F00105CD64B2
:101B7000C96C01F00101059180210091CDE901427C
:101B80006946CDE90323FEF71FFD06B070BD0000D6
:101B9000004401400010024000480140704770B509
:101BA000044690F83C0000260D4601280BD0012089
:101BB00084F83C000C2A4AD007DC82B1042A20D0E9
:101BC000082A06D131E0022070BD102A53D0142A11
:101BD00063D00126002084F83C00304670BD2068A8
:101BE00000F0B8FF2068816941F008018161206838
:101BF000816921F004018161206881692A691143AA
:101C000011E0206800F0F4FF2068816941F4006170
:101C100081612068816921F4806181612068816926
:101C20002A6941EA02218161D4E7206801F028F89D
:101C30002068C16941F00801C1612068C16921F0D3
:101C40000401C1612068C1692A69114311E020685B
:101C500001F05EF82068C16941F40061C16120684B
:101C6000C16921F48061C1612068C1692A6941EAC2
:101C70000221C161AEE7206801F092F82068016D91
:101C800041F0080101652068016D21F00401016542
:101C90002068016D2A69114311E0206801F0B8F84D
:101CA0002068016D41F4006101652068016D21F437
:101CB000806101652068016D2A6941EA02210165A0
:101CC00088E710B5040003D094F83D0010B107E098
:101CD000012010BD002084F83C00204600F022F8CE
:101CE000022084F83D00211D206800F0B9FE01208B
:101CF00084F8480084F83E0084F83F0084F84000EF
:101D000084F8410084F8420084F8430084F84400D9
:101D100084F8450084F8460084F8470084F83D00C4
:101D2000002010BD7047704730B50446022269B1EB
:101D3000042912D0082917D00C291CD0102921D031
:101D400094F84300012824D0012030BD94F83E00CF
:101D50000128F9D184F83E201DE094F83F000128C5
:101D6000F2D184F83F2016E094F840000128EBD12E
:101D700084F840200FE094F841000128E4D184F871
:101D8000412008E094F842000128DDD184F8422087
:101D900001E084F843200122206800F0B9FE194BCD
:101DA00020681949194A984209D0884207D09042C0
:101DB00005D0174DA84202D0164DA84203D1456C5C
:101DC00045F400454564206898420CD0B0F1804F3E
:101DD00009D0114B984206D0104B984203D088424C
:101DE00001D0904207D181680D4A1140062906D0E2
:101DF000B1F5803F03D0016841F00101016000208E
:101E000030BD0000002C0140003401400040014082
:101E10000044014000480140000400400008004028
:101E20000700010070B501682D4881424FD12D4D4A
:101E300001212846FEF7ECFC00B101202A4C0221CA
:101E400060702846FEF7E4FC00B10120E071042137
:101E50002846FEF7DDFC00B10120607301214FF040
:101E60009040FEF7D5FC00B101200021E0740B4644
:101E70005FF0010501EB410014F8102022B1012AA6
:101E80000AD0022A1FD112E004EB40025678D6B9DC
:101E900004F81050938016E004EB4002527812B11F
:101EA00004F810300FE0022204F810200BE004EBDD
:101EB00040025678012E0BD09088401C80B2908052
:101EC000462800D9D570491CC9B20429D2D370BDA7
:101ED00004F8103090884628F5D29570F3E700009A
:101EE0000008004000040048A00100200246002035
:101EF00041B1042909D008290AD00C2901D1106860
:101F0000006C70471068406B70471068806B7047BA
:101F10001068C06B70477047FEE7000000B585B0E1
:101F200014216846FEF750FA4FF6FF70009000202B
:101F30000321CDE90201019069460248FEF744FB06
:101F400005B000BD0008004800B585B01421684602
:101F5000FEF73AFA4FF6FF7000900120019003203F
:101F600003900020029069460248FEF72DFB05B061
:101F700000BD00000008004870B500240646214658
:101F8000204600F003F900F041F94FF49635304651
:101F900000F010F9641CAC42F9D370BD30B587B0C5
:101FA00014216846FEF710FA1E48C16C41F0040186
:101FB000C164C16C01F004010591C16C41F00101E3
:101FC000C164C16C01F001010591C16C41F00201D5
:101FD000C164C06C012500F0020005904FF4487008
:101FE000CDE9000500240394694602940E48FEF7EB
:101FF000EBFA280203940090CDE901544FF090448D
:1020000069462046FEF7E0FAFFF79EFFA06940F41C
:102010008070A06104481830016841F408710160C3
:1020200007B030BD0010024000040048203AD2B290
:10203000034B02EB420203EB021200F019B800005E
:1020400052310008F0B50E460746002540F23F1415
:1020500007E021463846FFF7E9FF103C6D1CA4B2AB
:10206000761C3278002A01D0142DF2D3F0BD000086
:102070002DE9F04791468A460026044600F086F88E
:10208000DFF84080012700BF00F0C0F85FF00005D6
:1020900039F8160007FA05F10842404601D1408898
:1020A00000E0008800F086F86D1C102DF0D3641C51
:1020B000E4B25146204600F069F8761C182EE3D3AE
:1020C000BDE8F0871400002010B5FFF767FF00207F
:1020D00000F014F8084CA080A088A0F50241303927
:1020E00006D000F06BFB002000F008F8A08010BDC7
:1020F00000F0DBFAF7E700001400002070B51D497E
:102100000A6842F400720A600A6842F480720A6047
:10211000184C103C226842F020022260164A1060DF
:10212000086840F02000086000BF00BF00BF2068C2
:1021300040F020002060206840F480702060FFF7AD
:10214000EDFE4FF09041886A40F48070886200BFD5
:1021500000BF00BF0848001F006885B2886940F4CE
:1021600080708861FFF7F0FE206840F40070206006
:10217000284670BD280400481408004801B5BDF881
:1021800000000149488008BD1400002010B50C462D
:102190000146202000F068F82146BDE810402120CB
:1021A00000F062B801B5BDF800000149088008BD23
:1021B00014000020134A116841F4007111601149A4
:1021C00010390B6843F480730B600B6843F02003F5
:1021D0000B600D4B1860106840F02000106000BFCD
:1021E00000BF00BF086840F020000860086840F4A5
:1021F0008070086000BF00BF00BF086840F4007036
:10220000086070472804004814080048144908680A
:1022100040F400700860086840F48070086010485E
:102220001038026842F0200202600E4B22221A602F
:102230000A6842F020020A6000BF00BF00BF0168C8
:1022400041F020010160016841F48071016000BF2C
:1022500000BF00BF016841F40071016070470000D9
:102260002804004814080048184B10B51A6842F4B6
:1022700000721A601A6842F480721A60134A103AA7
:10228000146844F020041460114C2060186840F079
:102290002000186000BF00BF00BF106840F02000A1
:1022A0001060106840F4807010602160186840F081
:1022B0002000186000BF00BF00BF106840F0200081
:1022C0001060106840F48070106010BD2804004851
:1022D0001408004810B501224FF6FF710748FEF7B9
:1022E0009CFA074C012204212046FEF796FA20466C
:1022F0000022BDE810400421FEF78FBA0008004814
:10230000000C00482DE9F04387B014216846FEF721
:102310005BF83748C16C41F00401C164C16C01F045
:1023200004010591C16C41F02001C164C16C01F050
:1023300020010591C16C41F00101C164C16C01F043
:1023400001010591C16C41F00201C164C16C01F051
:1023500002010591C16C41F00801C164C06C254FB8
:1023600000F008004FF47F440590012221463846D2
:10237000FEF753FADFF88080002204214046FEF782
:102380004CFADFF878904FF4407600223146484608
:10239000FEF743FA0125CDE9004500240294694681
:1023A00038460394FEF710F9CDE9005469464FF022
:1023B00090400295FEF708F907208DE83100694644
:1023C0004846FEF701F904200090CDE90154694622
:1023D00040460394FEF7F8F80096CDE901546946AB
:1023E00048460394FEF7F0F807B0BDE8F08300001C
:1023F0000010024000080048000C0048000400489B
:1024000010B594B01C210DA8FDF7DEFF34216846FD
:10241000FDF7DAFF20481F490024016041F63F71B3
:10242000C0E901146321C0E9031444618461FEF72B
:10243000E4FE08B1FEF7B3F81748FFF742FC08B115
:10244000FEF7ADF860200D901420CDE90E04109435
:102450001194129400220DA90F481394FFF79FFBCB
:1024600008B1FEF79CF800944FF40050CDE9044009
:102470000194029403940694694607480C94FEF76D
:1024800013FE08B1FEF78BF80348FFF74FFB14B0BB
:1024900010BD0000004401400801002010B594B0B8
:1024A0001C210DA8FDF790FF34216846FDF78CFF35
:1024B00020481F490024016040F69F71C0E90114C3
:1024C0006321C0E9031444618461FEF796FE08B1FC
:1024D000FEF765F81748FFF7F4FB08B1FEF75FF861
:1024E00060200D901420CDE90E04109411941294E4
:1024F00000220DA90F481394FFF751FB08B1FEF716
:102500004EF800944FF40050CDE904400194029439
:1025100003940694694607480C94FEF7C5FD08B17C
:10252000FEF73DF80348FFF701FB14B010BD0000B3
:10253000004801405401002010B588B0002418481C
:102540000594069404940094019402944FF0804101
:10255000039401604F21C0E90114611EC0E9031416
:102560008461FFF764F808B1FEF719F8049404A930
:102570000B480694FEF7F2FD08B1FEF710F80120B3
:10258000CDE9004002940022694605480394FEF715
:10259000BFFF002801D0FEF702F808B010BD000010
:1025A0002400002010B58CB0002405942248049427
:1025B0000694079408940A94099400940194029450
:1025C0001C49039401604F21C0E9011442F20F71CC
:1025D000C0E903148461FEF710FE08B1FDF7DFFFC8
:1025E0004FF48050049004A91348FEF7DBFE08B1B5
:1025F000FDF7D5FF1048FFF71AF808B1FDF7CFFF38
:10260000089408A90C480A94FEF7A8FD08B1FDF744
:10261000C6FF0120CDE90040029400226946064829
:102620000394FEF775FF002801D0FDF7B8FF0CB04A
:1026300010BD0000000400407000002010B588B0FC
:102640000024174800940194029403940494059480
:102650001249069401604F21C0E9011442F20F7142
:10266000C0E903148461FEF7C8FD08B1FDF797FFC8
:102670004FF48050009069460948FEF793FE08B178
:10268000FDF78DFF049404A905480694FEF766FD46
:10269000002801D0FDF783FF08B010BD00080040FE
:1026A000BC000020FEE7FEE7704730B501210020A6
:1026B000FFF7DAFD4FF47A70FDF763FF0021012088
:1026C000FFF7D2FD41F290711020FFF7CDFD4FF4DE
:1026D0001C516020FFF7C8FD01216120FFF7C4FDF8
:1026E00002214620FFF7C0FD48F210011320FFF73A
:1026F000BBFD48F2FE011220FFF7B6FD4FF4A061CA
:102700000220FFF7B1FD41F230010320FFF7ACFDDD
:1027100040F2033421463020FFF7A6FD2146312048
:10272000FFF7A2FD21463220FFF79EFDE51E294658
:102730003320FFF799FD03213420FFF795FD214653
:102740003520FFF791FD14213620FFF78DFD21463E
:102750003720FFF789FD21463820FFF785FD214608
:102760003920FFF781FD29463A20FFF77DFD03213F
:102770003B20FFF779FD21463C20FFF775FD4FF424
:10278000A0513D20FFF770FD4FF400719220FFF73C
:102790006BFD21469320FFF767FD40F60D01902069
:1027A000FFF762FD41F218010320FFF75DFDBDE870
:1027B000304040F273110720FFF756BD10B543F2C9
:1027C0000801E320FFF750FD1221E720FFF74CFD41
:1027D00041F23121EF20FFF747FD00210120FFF7F3
:1027E00043FD4FF4E0610220FFF73EFD41F230016E
:1027F0000320FFF739FD00210420FFF735FD40F2EB
:1028000007210820FFF730FD00210920FFF72CFDEC
:1028100000210A20FFF728FD00210C20FFF724FDEE
:1028200000210D20FFF720FD00210F20FFF71CFDE8
:1028300000211020FFF718FD07211120FFF714FDDC
:1028400000211220FFF710FD00211320FFF70CFDDF
:10285000C820FDF7A7FE41F290611020FFF704FDAC
:1028600040F227211120FFF7FFFC3220FDF79AFEEE
:102870001D211220FFF7F8FC3220FDF793FE4FF4E4
:1028800000611320FFF7F0FC14212920FFF7ECFC76
:102890000B212B20FFF7E8FC3220FDF783FE0021FF
:1028A0002020FFF7E1FC00212120FFF7DDFC0721BC
:1028B0003020FFF7D9FC40F207713120FFF7D4FC3C
:1028C00006213220FFF7D0FC40F204713520FFF7DB
:1028D000CBFC41F604713620FFF7C6FC04213720FB
:1028E000FFF7C2FC00213820FFF7BEFC40F2067162
:1028F0003920FFF7B9FC40F201713C20FFF7B4FC2E
:102900000F213D20FFF7B0FC00215020FFF7ACFC69
:10291000EF215120FFF7A8FC00215220FFF7A4FC73
:1029200040F23F115320FFF79FFC4FF41C516020F1
:10293000FFF79AFC01216120FFF796FC00216A2035
:10294000FFF792FC00218020FFF78EFC0021812000
:10295000FFF78AFC00218220FFF786FC00218320FC
:10296000FFF782FC00218420FFF77EFC00218520F8
:10297000FFF77AFC10219020FFF776FC00219220CF
:10298000FFF772FC03219320FFF76EFC4FF4887170
:102990009520FFF769FC00219720FFF765FC0021D7
:1029A0009820FFF761FC41F218010320FFF75CFC5F
:1029B000BDE8104040F273110720FFF755BC704787
:1029C000FDF736BF10B594B038216846FDF7FCFC22
:1029D00014210EA8FDF7F8FC4FF40070FDF7BAFFC4
:1029E000012000900004019002200324CDE9070497
:1029F0001421CDE90A100C900D9009946846FEF759
:102A000035F908B172B6FEE70F20CDE90E040020BB
:102A100010901190129002210EA8FEF701F80028E4
:102A200001D072B6FEE714B010BD00000248016884
:102A300041F470010160704788ED00E00148FEF745
:102A400077BF0000240000200148FEF771BF00009E
:102A5000700000200148FEF76BBF0000BC000020A2
:102A60002DE9F0430268234B234D244E244C4FF0B4
:102A70008049984207D0484505D0A84203D0B042CB
:102A800001D0A04203D122F070074A683A431D4F9B
:102A9000DFF874C0DFF8748098420DD048450BD041
:102AA000A84209D0B04207D0A04205D0B84203D016
:102AB000604501D0404503D122F44075CA682A43DD
:102AC0004D6922F080022A4302608A68C2620A6865
:102AD0008262984207D0A04205D0B84203D0604538
:102AE00001D0404501D10969016301214161BDE87F
:102AF000F0830000002C014000040040000800406A
:102B000000340140004001400044014000480140C1
:102B100010B501F01F030121046A99408C4304623F
:102B2000016A9A401143016210BD10B5846842EAFF
:102B3000032224F47F440A432243826010BD000034
:102B40008268034B1A400A4342F0070181607047D4
:102B50008FFFCFFF2DE9F043026A22F001020262EB
:102B6000056A436882691C4C25F0020522400C6806
:102B700022F0030214438A68194E2A43174D194F55
:102B8000DFF864C0DFF86490A84207D0B04205D0F7
:102B9000B84203D0604501D0484506D122F008086C
:102BA000CA6842EA080222F00402A84207D0B042F2
:102BB00005D0B84203D0604501D0484505D14D69E4
:102BC00023F440731D438B692B4343608461496840
:102BD00041630262BDE8F0838FFFFEFF002C0140DD
:102BE00000340140004001400044014000480140E1
:102BF000F0B5026A22F010020262056A4268836937
:102C0000194C1B4E23400C6823F4407343EA042400
:102C100025F020038D6843EA0513144DA84201D026
:102C2000B04206D1CF6823F0800343EA071323F0B4
:102C30004003A8420AD0B04208D00E4DA84205D0A9
:102C40000D4DA84202D00D4DA84207D14D6922F486
:102C5000406242EA85028D6942EA850242608461EF
:102C6000496881630362F0BDFF8FFFFE002C0140C5
:102C70000034014000400140004401400048014050
:102C8000F0B5026A22F480720262056A4368C26982
:102C9000194C1B4E22400C6822F00302144325F409
:102CA00000728D6842EA0522144DA84201D0B0425C
:102CB00006D1CF6822F4006242EA072222F4806241
:102CC000A8420AD0B04208D00E4DA84205D00E4D01
:102CD000A84202D00D4DA84207D14D6923F44053BC
:102CE00043EA05138D6943EA05134360C4614968EB
:102CF000C1630262F0BD00008FFFFEFF002C0140A7
:102D000000340140004001400044014000480140BF
:102D1000F0B5026A22F480520262056A4268C36911
:102D2000194C1B4E23400C6823F4407343EA0424DF
:102D300025F400538D6843EA0533144DA84201D0B1
:102D4000B04206D1CF6823F4004343EA073323F4AB
:102D50008043A8420AD0B04208D00E4DA84205D008
:102D60000D4DA84202D00D4DA84207D14D6922F465
:102D7000404242EA85128D6942EA85124260C4618E
:102D8000496801640362F0BDFF8FFFFE002C014023
:102D9000003401400040014000440140004801402F
:102DA00030B5026A22F480320262046A4268036D1E
:102DB000114D2B400D681D4324F400330C8943EA68
:102DC00004430E4CA0420BD00D4CA04208D00D4C39
:102DD000A04205D00C4CA04202D00C4CA04204D121
:102DE0004C6922F4803242EA042242600565496857
:102DF0008164036230BD00008FFFFEFF002C0140A4
:102E000000340140004001400044014000480140BE
:102E100030B5026A22F480120262046A4268036DCD
:102E2000114D24F400142B400D6843EA05230D894D
:102E300044EA05540D4DA8420BD00D4DA84208D0D0
:102E40000C4DA84205D00C4DA84202D00B4DA84213
:102E500004D14D6922F4802242EA85224260036552
:102E60004968C164046230BDFF8FFFFE002C014041
:102E7000003401400040014000440140004801404E
:102E800010B5036A046A24F001040462846924F022
:102E9000F00444EA021423F00A020A438461026245
:102EA00010BD000070B5046A24F001040462846956
:102EB000056A124EB0420ED0B0F1804F0BD0104ECA
:102EC000B04208D00F4EB04205D00F4EB04202D0F3
:102ED0000E4EB04203D124F00304144301E044F049
:102EE00001041A0724F0F00444EA126225F00A03F0
:102EF00001F00A0119438261016270BD002C01409A
:102F0000000400400008004000340140004001403F
:102F100010B5036A23F0100303628369046A23F483
:102F2000704343EA023224F0A00343EA01118261B4
:102F3000016210BD30B5046A24F010040462846993
:102F4000056A24F4407444EA022222F470444FF6E5
:102F5000FF7202EA03322243A02425F0A00304EA10
:102F6000011119438261016230BDFEE70907090EB4
:102F7000002804DB00F1E02080F80014704700F026
:102F80000F0000F1E02080F8141D70470EB5FDF72A
:102F900057FCFFF717FDFFF7B5F9FFF703FBFFF746
:102FA0002FFAFFF77BFAFFF7C7FAFFF747FBFFF7A8
:102FB00091F9FFF789F80020FEF7DEFF0020FFF708
:102FC000DDF84FF6FF70FFF7EDF83F48FEF7AEF97A
:102FD00000213E48FEF7A8FE00213D48FEF7A4FE72
:102FE00000213C48FEF70EFC00213B48FEF70AFC9E
:102FF0003AA16846FDF764F969461820FFF722F800
:103000000A273B4D3B4C0026A878012807D1002019
:10301000FEF7B2FF207830B100202070AE70287A21
:10302000012802D00DE00120F7E760780A30C0B235
:103030006070642800D1677024496078096848632B
:103040002E72A87B01280BD1A0780A30C0B2A070E4
:10305000642800D1A7701E49A07809684863AE7340
:103060002078D8B91DA16846FDF72AF969461820CD
:10307000FEF7E8FF204821A102886846FDF720F905
:1030800069463020FEF7DEFF204821A1028868460D
:10309000FDF716F969466020FEF7D4FF2078012875
:1030A000B2D162781EA16846FDF70AF96946302060
:1030B000FEF7C8FFA2781DA16846FDF701F9694631
:1030C0006020FEF7BFFF9FE7BC0000200801002042
:1030D0005401002024000020700000202020202027
:1030E00020202031313120666972737400000000A5
:1030F000A00100200000002020000020202020202F
:10310000202020465251313D256400001C00002043
:1031100020202020202020465251323D25640000EE
:10312000202020205041363A256400002020202015
:103130005041373A256400004FF04070E1EE100A2C
:1031400070470000000000000000010203040607B1
:10315000080900000000000000000000000000005E
:10316000000000000000000000000000000000005F
:10317000000000000000000000000000000000004F
:103180000000000080018001800180018001800139
:1031900080018001800180018001800180010000A8
:1031A000000080018001000000000000000000001D
:1031B000000000000000CC00CC00CC00CC00CC0013
:1031C000CC00000000000000000000000000000033
:1031D00000000000000000000000000000000000EF
:1031E0000000000000000000000000000000600C73
:1031F000600C600C30063006FE1FFE1F30063807DC
:103200001803FE1FFE1F180318038C018C018C018C
:10321000000000008000E003F80F9C0E8C1C8C184E
:103220008C009800F801E007800E801C8C188C1828
:103230009C18B80CF00FE003800080000000000034
:1032400000000000000000000E181B0C110C1106FD
:103250001106110311039B018E01C038C06C60443C
:103260006044304430441844186C0C3800000000AE
:1032700000000000E001F0033807180618063003CC
:10328000F001F000F8009C310E33061E061C061CEF
:10329000063FFC73F0210000000000000000000069
:1032A0000000000000000C000C000C000C000C00E2
:1032B0000C00000000000000000000000000000002
:1032C00000000000000000000000000000000000FE
:1032D00000000000000200038001C000C000600088
:1032E000600030003000300030003000300030002E
:1032F000300060006000C000C000800100030002D8
:103300000000000020006000C00080018001000378
:103310000003000600060006000600060006000680
:1033200000060003000380018001C000600020004F
:103330000000000000000000000000000000C000CD
:10334000C000D806F807E00130033807000000008D
:10335000000000000000000000000000000000006D
:1033600000000000000000000000000000008001DC
:103370008001800180018001FC3FFC3F80018001D1
:1033800080018001800100000000000000000000BA
:10339000000000000000000000000000000000002D
:1033A000000000000000000000000000000000001D
:1033B0000000000080018001000100018000000089
:1033C00000000000000000000000000000000000FD
:1033D00000000000000000000000E007E00700001F
:1033E00000000000000000000000000000000000DD
:1033F00000000000000000000000000000000000CD
:1034000000000000000000000000000000000000BC
:1034100000000000C000C00000000000000000002C
:1034200000000000000C000C00060006000600036F
:10343000000300038003800180018001C000C00000
:10344000C0006000600000000000000000000000FC
:1034500000000000E003F007380E180C0C180C18E0
:103460000C180C180C180C180C180C180C18180C3C
:10347000380EF007E003000000000000000000002C
:103480000000000000018001C001F00198018801E6
:103490008001800180018001800180018001800124
:1034A0008001800180010000000000000000000099
:1034B00000000000E003F80F180C0C180C1800189E
:1034C0000018000C000600038001C00060003000FE
:1034D0001800FC1FFC1F000000000000000000009E
:1034E00000000000E001F807180E0C0C0C0C000C9A
:1034F0000006C003C007000C001800180C180C18B8
:10350000180CF807E00300000000000000000000B5
:1035100000000000000C000E000F000F800DC00C1A
:10352000600C600C300C180C0C0CFC3FFC3F000CC9
:10353000000C000C000C0000000000000000000067
:1035400000000000F80FF80F180018000C00EC0342
:10355000FC071C0E001C0018001800180C181C0C8E
:10356000180EF807E0030000000000000000000053
:1035700000000000C007F00F381C181818000C00DD
:10358000CC03EC0F3C0E1C1C0C180C180C18181C4F
:10359000380EF007E003000000000000000000000B
:1035A00000000000FC1FFC1F000C000600060003CA
:1035B00080038001C001C000E00060006000700076
:1035C000300030003000000000000000000000006B
:1035D00000000000E003F007380E180C180C180C5F
:1035E0003806F007F007180C0C180C180C180C18FB
:1035F000380CF80FE003000000000000000000009D
:1036000000000000E003F007380E1C0C0C180C182A
:103610000C181C1C381EF81BE0190018000C000CBC
:103620001C0EF807F0010000000000000000000080
:103630000000000000000000000000000000800109
:1036400080010000000000000000000000000000F9
:103650000000800180010000000000000000000068
:1036600000000000000000000000000000008001D9
:1036700080010000000000000000000000000000C9
:1036800000008001800100010001800000000000B6
:10369000000000000000000000000000000000002A
:1036A00000000010001C800FE003F8001800F80074
:1036B000E003800F001C001000000000000000006C
:1036C00000000000000000000000000000000000FA
:1036D0000000F81F000000000000F81F00000000BC
:1036E00000000000000000000000000000000000DA
:1036F00000000000000000000000000000000000CA
:10370000000008003800F001C007001F0018001F6B
:10371000C007F001380008000000000000000000B1
:1037200000000000E003F80F180C0C180C1800182B
:10373000000C000600038001C000C000C0000000B3
:103740000000C000C00000000000000000000000F9
:10375000000000000000E00718180420C229224AD7
:10376000114409440944094409221113E20C02409E
:1037700004201818E007000000000000000000000E
:103780000000000080038003C006C006C006600C75
:10379000600C301830183018F83FF83F1C700C607F
:1037A0000C6006C006C00000000000000000000021
:1037B00000000000FC03FC0F0C0C0C180C180C187B
:1037C0000C0CFC07FC0F0C180C300C300C300C30BF
:1037D0000C18FC1FFC0700000000000000000000A7
:1037E00000000000C007F01F38381C300C70066065
:1037F00006000600060006000600060006600C70C3
:103800001C30F01FE0070000000000000000000076
:1038100000000000FE03FE0F060E06180618063014
:103820000630063006300630063006300618061818
:10383000060EFE0FFE030000000000000000000066
:1038400000000000FC3FFC3F0C000C000C000C00D2
:103850000C00FC1FFC1F0C000C000C000C000C00EA
:103860000C00FC3FFC3F00000000000000000000D6
:1038700000000000F83FF83F18001800180018007A
:103880001800F81FF81F180018001800180018007A
:1038900018001800180000000000000000000000E0
:1038A00000000000E00FF83F3C780E6006E007C023
:1038B0000300030003FE03FE03C007C006C00EC0E2
:1038C0003CF0F83FE00F00000000000000000000A6
:1038D000000000000C300C300C300C300C300C3080
:1038E0000C30FC3FFC3F0C300C300C300C300C30FA
:1038F0000C300C300C300000000000000000000014
:1039000000000000800180018001800180018001B1
:10391000800180018001800180018001800180019F
:103920008001800180010000000000000000000014
:103930000000000000060006000600060006000663
:103940000006000600060006000600061806180617
:103950003807F003E0010000000000000000000054
:103960000000000006300618060C06060603860155
:10397000C60066007600DE008E0106030606060C11
:10398000061806300660000000000000000000007D
:103990000000000018001800180018001800180097
:1039A0001800180018001800180018001800180057
:1039B0001800F81FF81F00000000000000000000C1
:1039C000000000000EE01EF01EF01EF036D836D8C3
:1039D00036D836D866CC66CC66CCC6C6C6C6C6C691
:1039E000C6C686C386C300000000000000000000B9
:1039F000000000000C301C303C303C306C306C302F
:103A0000CC30CC308C310C330C330C360C360C3CB7
:103A10000C3C0C380C3000000000000000000000DE
:103A200000000000E007F81F1C380E70066003C09D
:103A300003C003C003C003C003C003C006600E7010
:103A40001C38F81FE0070000000000000000000024
:103A500000000000FC0FFC1F0C380C300C300C3048
:103A60000C300C18FC1FFC070C000C000C000C00A8
:103A70000C000C000C000000000000000000000022
:103A800000000000E007F81F1C380E70066003E01D
:103A900003C003C003C003C003C007E006630E3FBA
:103AA0001C3CF83FE0F700C00000000000000000F0
:103AB00000000000FE0FFE1F0638063006300630FC
:103AC0000638FE1FFE0706030606060C0618061833
:103AD0000630063006600000000000000000000014
:103AE00000000000E003F80F1C0C0C180C180C0070
:103AF0001C00F803E00F001E0038063006300E30C0
:103B00001C1CF80FE007000000000000000000008F
:103B100000000000FE7FFE7F8001800180018001A7
:103B2000800180018001800180018001800180018D
:103B30008001800180010000000000000000000002
:103B4000000000000C300C300C300C300C300C300D
:103B50000C300C300C300C300C300C300C300C3085
:103B60001818F81FE0070000000000000000000027
:103B70000000000003600630063006300C180C18F8
:103B80000C18180C180C380E30063006700760033D
:103B90006003C001C0010000000000000000000040
:103BA000000000000360C361C361C3616633663314
:103BB00066336633663366336C1B6C1B6C1B2C1AC6
:103BC0003C1E380E380E000000000000000000000F
:103BD000000000000FE00C7018303018700C600E00
:103BE000C00780038003C003E006700C301C181867
:103BF0000C300E6007E00000000000000000000034
:103C00000000000003C006600C301C383818300C6F
:103C10006006E007C003800180018001800180010F
:103C20008001800180010000000000000000000011
:103C300000000000FC7FFC7F006000300018000CDA
:103C4000000600038001C0006000300018000C0076
:103C50000600FE7FFE7F0000000000000000000064
:103C600000000000E003E00360006000600060000E
:103C70006000600060006000600060006000600044
:103C8000600060006000600060006000E003E0032E
:103C90000000000030003000600060006000C000E4
:103CA000C000C000C001800180018001000300034A
:103CB00000030006000600000000000000000000F5
:103CC00000000000E003E003000300030003000322
:103CD00000030003000300030003000300030003CC
:103CE000000300030003000300030003E003E003FC
:103CF000000000000000C001C00160036003600319
:103D000030063006180C180C0000000000000000FF
:103D100000000000000000000000000000000000A3
:103D20000000000000000000000000000000000093
:103D30000000000000000000000000000000000083
:103D400000000000FFFFFFFF000000000000000077
:103D5000000000000C000C000C000C000C000C001B
:103D60000000000000000000000000000000000053
:103D70000000000000000000000000000000000043
:103D80000000000000000000000000000000F00340
:103D9000F8071C0C0C0C000FF00FF80C0C0C0C0CA2
:103DA0001C0FF80FF01800000000000000000000D9
:103DB0000000000018001800180018001800D803B0
:103DC000F80F380C18181818181818181818181888
:103DD000380CF80FD80300000000000000000000BD
:103DE0000000000000000000000000000000C00310
:103DF000F007300E180C1800180018001800180CE6
:103E0000300EF007C00300000000000000000000BA
:103E10000000000000180018001800180018C01B4F
:103E2000F01F301C18181818181818181818181817
:103E3000301CF01FC01B000000000000000000004C
:103E40000000000000000000000000000000C003AF
:103E5000F00F300C1818F81FF81F18001800381849
:103E6000301CF00FC0070000000000000000000040
:103E700000000000800FC00FC000C000C000F007AD
:103E8000F007C000C000C000C000C000C000C000FB
:103E9000C000C000C00000000000000000000000E2
:103EA0000000000000000000000000000000E00D25
:103EB000F80F180E0C0C0C0C0C0C0C0C0C0C0C0C45
:103EC000180EF80FE00D000C0C0C1C06F807F001A2
:103ED0000000000018001800180018001800D8078B
:103EE000F80F381C18181818181818181818181857
:103EF0001818181818180000000000000000000032
:103F000000000000C000C000000000000000C00071
:103F1000C000C000C000C000C000C000C000C000A1
:103F2000C000C000C0000000000000000000000051
:103F300000000000C000C000000000000000C00041
:103F4000C000C000C000C000C000C000C000C00071
:103F5000C000C000C000C000C000C000F800780071
:103F6000000000000C000C000C000C000C000C0CFD
:103F70000C060C038C01CC006C00FC009C018C0333
:103F80000C030C060C0C00000000000000000000F8
:103F900000000000C000C000C000C000C000C000A1
:103FA000C000C000C000C000C000C000C000C00011
:103FB000C000C000C00000000000000000000000C1
:103FC00000000000000000000000000000007C3C39
:103FD000FF7EC7E383C183C183C183C183C183C122
:103FE00083C183C183C10000000000000000000005
:103FF0000000000000000000000000000000980722
:10400000F80F381C18181818181818181818181835
:104010001818181818180000000000000000000010
:104020000000000000000000000000000000C003CD
:10403000F00F300C18181818181818181818181825
:10404000300CF00FC0030000000000000000000072
:104050000000000000000000000000000000D80385
:10406000F80F380C181818181818181818181818E5
:10407000380CF80FD80318001800180018001800A2
:104080000000000000000000000000000000C01B55
:10409000F01F301C181818181818181818181818A5
:1040A000301CF01FC01B0018001800180018001862
:1040B0000000000000000000000000000000B00749
:1040C000F00370003000300030003000300030006D
:1040D0003000300030000000000000000000000050
:1040E0000000000000000000000000000000E003ED
:1040F000F003380E180C3800F003C007000C180C41
:10410000380EF007E003000000000000000000008F
:104110000000000000008000C000C000C000F007E8
:10412000F007C000C000C000C000C000C000C00058
:10413000C000C00780070000000000000000000071
:10414000000000000000000000000000000018183F
:1041500018181818181818181818181818181818DF
:10416000381CF01FE01900000000000000000000F3
:1041700000000000000000000000000000000C181B
:10418000180C180C180C300630063006600360035B
:104190006003C001C001000000000000000000003A
:1041A0000000000000000000000000000000C1410D
:1041B000C141C36163636363636336363636363643
:1041C0001C1C1C1C1C1C0000000000000000000047
:1041D00000000000000000000000000000001C388B
:1041E000381C300C600660036003600360036006E7
:1041F000300C381C1C3800000000000000000000DB
:104200000000000000000000000000000000183066
:10421000301830187018600C600CE00CC006C00636
:1042200080038003800380018001C001F0007000E2
:104230000000000000000000000000000000FC1F63
:10424000FC1F000C000600038001C000600030006D
:104250001800FC1FFC1F0000000000000000000010
:104260000000000000038001C000C000C000C000CA
:10427000C000C00060006000300060004000C0006E
:10428000C000C000C000C000C000800100030000EA
:104290000000000080018001800180018001800118
:1042A0008001800180018001800180018001800106
:1042B00080018001800180018001800180018001F6
:1042C000000000006000C000C0018001800180018A
:1042D000800180010003000300060003000180014B
:1042E00080018001800180018001C0006000000029
:1042F00000000000000000000000000000000000BE
:104300000000F010F81F080F00000000000000007F
:10431000000000000000000000000000000000009D
:1043200000000000444300080000002024000000BA
:10433000140200086843000824000020F40700006D
:1043400030020008000A0A0010000000010000000E
:10435000000000000024F4000000FFFF0000000047
:08436000000000000000000055
:04000005080001D915
:00000001FF
