:020000040800F2
:10000000D80900209502000897420008BB37000875
:1000100095420008AF0C000861560008000000007F
:100020000000000000000000000000005146000831
:10003000B10C000800000000994200085346000877
:10004000AF020008AF020008AF020008AF020008CC
:10005000AF020008AF020008AF020008AF020008BC
:10006000AF020008AF020008AF020008AF020008AC
:10007000AF020008AF020008AF020008AF0200089C
:10008000AF02000800000000AF020008AF02000845
:10009000AF020008AF020008AF020008AF0200087C
:1000A000AF020008AF020008AF020008AF0200086C
:1000B000CD460008D9460008E5460008AF02000812
:1000C000AF020008AF020008AF020008AF0200084C
:1000D000AF02000855560008AF020008AF02000842
:1000E000AF020008AF020008AF020008AF0200082C
:1000F000AF020008AF020008AF02000800000000D5
:1001000000000000AF02000800000000AF0200087D
:10011000AF02000800000000AF020008AF020008B4
:10012000AF020008AF020008AF020008AF020008EB
:10013000AF0200080000000000000000AF0200084D
:10014000AF020008AF02000800000000000000003D
:10015000000000000000000000000000000000009F
:10016000000000000000000000000000AF020008D6
:10017000AF020008000000000000000000000000C6
:1001800000000000AF0200080000000000000000B6
:10019000000000000000000000000000000000005F
:1001A0000000000000000000AF020008AF020008DD
:1001B000AF020008AF020008AF0200080000000014
:1001C00000000000AF020008000000000000000076
:1001D000AF020008AF02000800F002F800F04AF891
:1001E0000AA090E8000C82448344AAF10107DA4592
:1001F00001D100F03FF8AFF2090EBAE80F0013F09A
:10020000010F18BFFB1A43F0010318471C6A0000D6
:100210003C6A0000103A24BF78C878C1FAD8520767
:1002200024BF30C830C144BF04680C607047000070
:100230000023002400250026103A28BF78C1FBD8EF
:10024000520728BF30C148BF0B607047642900F0D7
:100250000181002070471FB505F0D8FB00F0DCFCE1
:1002600004000020002105F0BBFB401C60601FBDA6
:1002700010B510BD00F094FC1146FFF7ECFF05F03F
:100280003FFA00F0BBFC03B4FFF7F2FF03BC00F041
:10029000C7FC00000948804709480047FEE7FEE721
:1002A000FEE7FEE7FEE7FEE7FEE7FEE7FEE7FEE726
:1002B00004480549054A064B70470000BD46000842
:1002C000D9010008D8030020D8090020D805002053
:1002D000D805002053EA020C00F069802DE9F04BAC
:1002E0004FF00006002B1FBFB3FA83F503FA05F4A5
:1002F00024FA05F65E4012BF1643B2FA82F502FAFE
:1003000005F4C5F120051EBF22FA05FC44EA0C04E1
:10031000203556EA044C4FEA144418BF641C4FF0D1
:1003200000084FF00009904271EB030C39D300290B
:1003300019BFB1FA81F701FA07F6B0FA80F700FAAF
:1003400007F6C7F120071EBF20FA07FC46EA0C0695
:100350002037B6FBF4FCA7EB0507103F07F01F0B97
:10036000CBF120060CFA0BFB2CFA06F644BFB34681
:100370000026202FA4BF5E464FF0000B5BEA060C60
:1003800008BF4FF0010B19EB0B09ABFB027C48EBEC
:100390000608C01B06FB02CC0BFB03CC71EB0C0167
:1003A000C1E70B46024641464846BDE8F08B13B50F
:1003B0004FF000004FF00001AFF30080BDE81C409B
:1003C000704700000FB41CB5074B06AA7B44694672
:1003D0000090059800F0D1F90020694600F0E0F99E
:1003E0001CBC5DF814FB0000D10300002DE9F041B6
:1003F0000E460446002020622046E168884730B35C
:10040000252805D0D4E901219047206A401CF2E755
:10041000E168204600278847050018D0A5F1410073
:10042000192802D820354FF4006732462946204665
:100430002760FFF70BFF40B1012804D0F61D26F01E
:1004400007060836D8E7361DD6E72846DAE7206AD9
:10045000BDE8F0812DE9F0410646002410687529B9
:10046000314616A510D0AFF30080002802DA4042D2
:1004700013A507E031688A0701D512A502E04907F4
:1004800004D511A5012401E0AFF3008000210A2268
:1004900006F1240709E0B0FBF2FCB0FBF2F302FB2B
:1004A0001C00303078541846491C0028F3D12346EC
:1004B0002A463046BDE8F04100F001B900000000D6
:1004C0002D0000002B000000200000000FB400B53C
:1004D0008DB010A9099000910B904FF0FF300A9059
:1004E00000200C90064878440690064878446A46F6
:1004F00007900F9909A800F05FF90DB05DF814FBA3
:10050000EF020000070300002DE9FF5F4FF0000835
:100510009946144646469169D2E901A7DDF838B0FC
:1005200001988847054659EA0B0005D009E0A16902
:100530000198761C88470546216A28468847002886
:10054000F5D1681C03D05FEACA7005D015E04FF002
:10055000FF3004B0BDE8F09F2068011D2160D0F895
:1005600000800AE05FEACA7001D108F8015BA16966
:10057000761C01987F1E88470546002F1ADD681CEF
:1005800018D0B9F1000F0DD0E81705EBD06042117B
:1005900020F01F0059F822102A1A01209040014231
:1005A000E0D107E0BBF1000FDCD12846216A884783
:1005B0000028D7D0E16901988847BBF1000F07D127
:1005C000002E05DD5FEACA7002D1002188F8001014
:1005D000A068B84203DDBBF1000F03D017B16FF084
:1005E0000100B6E73046B4E710B5431C02E010F84E
:1005F000011B71B18107FAD14FF0013202C88C1A88
:100600008C4314EAC211F9D0C01A0A0603D0C01EE6
:1006100010BDC01A10BD0A0401D0801E10BD090211
:10062000FCD0401E10BD4FF000020429C0F0128023
:1006300010F0030C00F01B80CCF1040CBCF1020F95
:1006400018BF00F8012BA8BF20F8022BA1EB0C016A
:1006500000F00DB85FEAC17C24BF00F8012B00F860
:10066000012B48BF00F8012B70474FF0000200B586
:10067000134694469646203922BFA0E80C50A0E8C5
:100680000C50B1F12001BFF4F7AF090728BFA0E873
:100690000C5048BF0CC05DF804EB890028BF40F83F
:1006A000042B08BF704748BF20F8022B11F0804F81
:1006B00018BF00F8012B70477047704770472DE94D
:1006C000F0470D4699469246044600F12408016819
:1006D000880604D5E06921F01001216000E00120C6
:1006E000A84201DD471B00E00027A1697A1902EB4F
:1006F0000900081AA0612078C00602D42046AFF392
:100700000080002608E0D4E901211AF8060090478D
:10071000206A401C761C20624E45F4DB2078C0061F
:100720000AD52046AFF3008006E0D4E9012130204D
:100730009047206A401C2062381EA7F10107F4DCB4
:1007400007E0D4E9012118F805009047206A401C11
:100750002062281EA5F10105F3DC2046AFF30080DE
:100760002078000602D50220BDE8F0870120FBE7D3
:1007700001694A1C02610878704700B58FB0CDE965
:1007800001310021059105497944CDE90310114655
:100790006846FFF72BFE0FB000BD0000E5FFFFFF2E
:1007A0000A6802F8010B0A607047000002681144F1
:1007B0001378016018467047D1600549794451614A
:1007C00004497944116200211161114600F02EB8EC
:1007D000EDFFFFFF53000000426842B1016811F8CD
:1007E000013B23B1521EC0E9001218467047012197
:1007F000C160881E704742685AB1C368016843B936
:1008000083688B4205D0491E521CC0E900120020AB
:1008100070474FF0FF30704710B5044600F0E6F91E
:100820000068005D00F0010010BD00002DE9F34FED
:100830004FF0000A0C4656468DB001200C9001F195
:100840000C000B9062690B9801219047051E2DD07A
:10085000252D2CD0216A8847C0B162690B980121EF
:100860009047216A88470028F7D16269411E0B989A
:10087000904700E0761CA1690D988847216A884757
:100880000028F7D1E1690D988847DBE7A1690D9849
:100890008847A842074601D1761CD3E7E1690D9845
:1008A00088477F1C02D1BAF1000F6FD06BE16269FB
:1008B0000B9800273D46394690472A2804D16269A3
:1008C0000B98012190470125DFF8D08262690B98CF
:1008D00001219047A0F130010A290AD24745E5DC01
:1008E00007EB870100EB4107303FDFD445F01005EF
:1008F000ECE7E90601D46FF000476C280AD04C28D9
:1009000014D0682815D06A280DD074281CD07A28F5
:100910001AD01DE062690B98012190476C2802D023
:1009200045F0040514E045F002050DE045F0200512
:100930000AE062690B9801219047682802D045F0CF
:10094000080505E045F4006562690B9801219047B0
:10095000C4E9015765283DD019DC58287AD00CDC51
:10096000452837D004DC252826D041289ED131E007
:1009700046282FD0472899D12CE05B2877D06128D2
:1009800028D063287CD0642823D15AE0F6E06F2871
:1009900048D008DC66281DD067281BD0692821D0E4
:1009A0006E2816D127E0702845D0732868D07528A6
:1009B00047D078280DD14DE0A1690D9888472528AA
:1009C00005463FF469AFE1690D9888476D1C3FF417
:1009D0006AAFD8E00D9923466A466FF00100AFF385
:1009E0000080C5E045F0400023464FF00002606003
:1009F000A80736D43EE0E8077FF447AF2068011D22
:100A000021600068290501D506701BE7290701D57B
:100A1000068017E7A90703D5F117C0E9006111E7C0
:100A200006600FE745F0400023464FF00802606083
:100A3000A80716D41EE040F60E0125EA010060600A
:100A400016E045F0400023464FF00A026060A80718
:100A500007D40FE045F040006060A80708D52346A2
:100A600010220D996FF00100AFF3008080E007E0E5
:100A7000102223460D996FF00100AFF3008077E05C
:100A80004FF0000963284F46C8464B46CB4602D07C
:100A90005B2806D038E0E80601D40120A0600127D9
:100AA00032E06269D4F80CB00B98012190475E28BF
:100AB00007D14FF0010949466269D4F80CB00B9890
:100AC0009047216939B900210A4603AB43F8212038
:100AD000491C0829FADBD8B3216949B308F1010898
:100AE00062690B98012190475D28F4D1B9F1000F9C
:100AF00009D0002003A951F82020D24341F820203A
:100B0000401C0828F7DB03AB2069002820794FEA56
:100B100040701ED05B462246CDF80080CDE901979B
:100B20000D9900286FF0010020DAAFF300801FE07C
:100B3000C11703AA00EBD1614B1121F01F0102EB99
:100B40008302411A13680120884003431360C7E7FA
:100B500019E00D99224600286FF00100009702DA93
:100B6000AFF3008004E0FFF7CFFC01E0AFF30080BB
:100B700000280ADA401C06D10C9820B14FF0FF3053
:100B80000FB0BDE8F08F5046FAE7E90701D10AF14E
:100B9000010A064400200C9054E60000CCCCCC0C9A
:100BA000754600F035F8AE4605006946534620F01C
:100BB0000700854618B020B5FFF77AFBBDE8204056
:100BC0004FF000064FF000074FF000084FF0000B09
:100BD00021F00701AC46ACE8C009ACE8C009ACE8BC
:100BE000C009ACE8C0098D467047000010B500F0A0
:100BF00013F8001D10BD00BFE94D000010B50446FC
:100C0000AFF300802046BDE81040FFF73CBB00007A
:100C10000048704774030020004870479403002088
:100C200001491820ABBEFEE7260002004FF0013C50
:100C300050F8042B51F8043B9A4221D1A2EB0C034B
:100C4000934313EACC1317D150F8042B51F8043B0B
:100C50009A4215D1A2EB0C03934313EACC130BD1A8
:100C600050F8042B51F8043B9A4209D1A2EB0C0333
:100C7000934313EACC13DBD04FF00000704700BF62
:100C8000D01A01BAB1FA81F101F0180122FA01F08B
:100C9000CB40C1F12001DBB2C0B2C01A2CFA01F383
:100CA000D11A914311EAC311E6D170477047FEE7AC
:100CB0007047002240F6B83306E00021491C89B293
:100CC0009942FBD3521C92B28242F6D3704772B65D
:100CD000FEE700002DE9F047044690F858009CB06C
:100CE0000E464FF00009012815D0012084F8580065
:100CF00000251795189520684FF0A04840450ED163
:100D0000284F0097384603F01FF88246206803F00A
:100D10001BF860B10EE002201CB0BDE8F087E06D6A
:100D200040F02000E06584F858500120F4E7BAF163
:100D3000000F09D0E06D40F02000E0654FF00109A0
:100D400084F858504846E7E71748326840F61F7164
:100D5000002A826822F4604216D094F8383042EAC1
:100D6000433273681A438260D8F80820BB6802F0E7
:100D7000010203F001031A43E2D1B36832681A4357
:100D800083688B431A430BE08260D8F80820BB6865
:100D900002F0010203F001031A43D1D182688A43B1
:100DA0008260CDE700010050000300502DE9F84FAC
:100DB00000270446009790F85800DFF8D8930D46B6
:100DC000B846012811D0012684F85860206802F046
:100DD000B7FF60B1E06D40F02000E0655FF0010713
:100DE00084F858803846BDE8F88F0220FBE7D5E943
:100DF00000210C23206803EA91131844036B01F0CF
:100E00001F014FF01F0C0CFA01FCC2F3846223EAAD
:100E10000C038A4013430363206802F091FF82466B
:100E2000206802F089FF5AEA00003CD1AA682968CC
:100E30002068B2F1004F37D002F08AFF2068416984
:100E400021F00041416120686969C268C2F3C102B2
:100E5000520091402A69042A31D000EB82002B68AD
:100E6000026EDFF834C303F0F84302EA0C020B43CE
:100E70001A4342F00041016620682A69A96900EB23
:100E80008200026E22F080720A430266297F226885
:100E90002869012910D0002102EB8000026E22F0A7
:100EA00000720A4302667DE0002202F051FF2068D2
:100EB000416941F00041C5E74FF00071ECE70021C6
:100EC00002F034FF400320684FF0000172D002F0BE
:100ED0002DFF90FAA0F0B0FA80F1286842036ED09E
:100EE00090FAA0F0B0FA80F0814204D100221146BD
:100EF000206802F03CFF0121206802F017FF400348
:100F000020684FF001015DD002F010FF90FAA0F0D0
:100F1000B0FA80F12868420359D090FAA0F0B0FAF4
:100F200080F0814204D100220121206802F01FFFDD
:100F30000221206802F0FAFE400320684FF002010F
:100F400048D002F0F3FE90FAA0F0B0FA80F12868E1
:100F5000420344D090FAA0F0B0FA80F0814204D16C
:100F600000220221206802F002FF0321206802F023
:100F7000DDFE400320684FF0030133D002F0D6FEBF
:100F800090FAA0F0B0FA80F1286842032FD090FACE
:100F9000A0F0B0FA80F0814204D100220321206841
:100FA00002F0E5FE2068816811F0010F22D0A8E070
:100FB00000E004E002F0BAFEC0F384618DE7C0F304
:100FC000846091E702F0B2FEC0F38461A2E7C0F34F
:100FD0008460A6E702F0AAFEC0F38461B7E7C0F31D
:100FE0008460BBE702F0A2FEC0F38461CCE7C0F3EB
:100FF0008460D0E7EB6829684B4550F8B03FC1F3F7
:10100000120101D10B4300E08B430360E8684845BF
:1010100077D1286841031CD090FAA0F1B1FA81F190
:10102000491C01F01F0109294FEA403132D800293B
:1010300012D000BF90FAA0F1B1FA81F101F10101E3
:1010400001F01F0106FA01F609D100BFC0F3846167
:1010500009E0C0F38461E3E7C0F38461EEE790FA4E
:10106000A0F1B1FA81F101F1010101F01F0146EA9D
:10107000816102D1C0F3846003E090FAA0F0B0FA7D
:1010800080F000F1010000F01F0000EB400041EA99
:10109000005132E000290ED090FAA0F1B1FA81F1AE
:1010A00001F1010101F01F0106FA01F606D100BFAE
:1010B000C0F3846106E0C0F38461F1E790FAA0F127
:1010C000B1FA81F101F1010101F01F0146EA8161EC
:1010D00002D1C0F3846003E090FAA0F0B0FA80F08F
:1010E00000F1010000F01F002C4A00EB400002EB71
:1010F000005041EA000141F00071AA68206802F046
:1011000027FE27482A6802423FF46AAE25488168D4
:10111000254B01F0E0719A4202D0244B9A421CD137
:101120000B021AD42268B2F1A04F7FF459AE826844
:1011300041F4000122F0E0720A4382601C481D491C
:101140000068B0FBF1F0401C00EB4000800000E0C4
:10115000401E00900028FBD142E6174D174BAA42D3
:1011600007D1CD0105D422689A42F5D041F08071B3
:1011700009E0134DAA42EFD14A02EDD422689A4207
:10118000EAD041F48001826822F0E0720A43826072
:1011900026E6000000007F4000F0FF03000020FE74
:1011A0000000088000030050000021C31000C09020
:1011B00020000020400D0300000052C70001005035
:1011C000000084CBF8B54FF0000504002E460095D2
:1011D00002D0E06D10B107E00120F8BD204600F01C
:1011E000EFF8266684F8586020688168C1F3407182
:1011F00019B181686A4A1140816020688168C1F331
:10120000007189B98168674A114041F0805181605D
:10121000654866490068B0FBF1F04000801C00E0C2
:10122000401E00900028FBD120688168C1F3007146
:1012300041B9E16D41F01001E165216E41F001011C
:101240002166012502F07CFDE16DC90600D430B1B4
:10125000E06D40F01000E06501252846F8BDE06D26
:1012600020F4807040F00200E0652068806810F093
:10127000010F11D14FF0A04080684D4900F00100EE
:10128000896801F00101084306D14A486168826813
:1012900022F47C120A438260E168E06B627F0843BB
:1012A000A16841EA4231084394F8241040EA014021
:1012B000012904D1218D404A02EB41410843E16AF2
:1012C00029B101F47871226B014342EA01002168DF
:1012D000CA683A4B1A400243CA6020680169626BCF
:1012E00021F0406111430161206802F029FD0646AA
:1012F000206802F021FD30432ED1207F94F8381071
:10130000800340EA41022068C16844F20203994325
:101310001143C16020690028206801690AD041F4A6
:1013200080310161206850F8C01F22696FF30D0100
:10133000114307E021F480310161206850F8C01F9B
:101340006FF30D01016094F8400001280CD0206873
:10135000016921F001010161606901282068016BC8
:1013600021F00F0111D013E0D4E911010843D4E9B1
:1013700013121143084321680A6940F2FC739A432F
:10138000104340F001000861E6E7226A521E114353
:101390000163E06D20F0020040F00100E0655CE7D1
:1013A000C0FFFF5FC0FFFF7F20000020400D030053
:1013B00000010050000300500000FEFF0740F0FF56
:1013C0002DE9F04397B00446142111A8FFF74DF919
:1013D00044216846FFF749F94FF0005021682D4D30
:1013E0000327DFF8B49086132C4C4FF00008B1F1BE
:1013F000A04F10D02A4A914248D100960F906846DB
:1014000000F000FB08B1FFF762FC2868401C286070
:10141000012824D02BE000960F90684600F0F2FAE5
:1014200008B1FFF754FC2868401C2860012807D148
:10143000E06C40F40050E064E06C00F40050169062
:10144000E06C40F00200E064E06C11A900F00200E2
:1014500016904FF4805081E88101484614E0E06C1A
:1014600040F40050E064E06C00F400501690E06C32
:1014700040F00200E064E06C11AA00F00200169057
:1014800082E8C00111A9484600F090F817B0BDE805
:10149000F08300001000002000040048001002400B
:1014A0000001005010B590F8253000210122022BD8
:1014B00003D00421C163012122E003681C6824F0E9
:1014C0000E041C60836C1C6824F480741C60036828
:1014D0001C6824F001041C6090F84430046C03F094
:1014E0001F0302FA03F36360D0E913345C60436DB9
:1014F00033B11C6824F480741C60D0E916345C603D
:1015000080F82520002280F82420084610BD70B500
:1015100090F82520002401212346022A07D0042226
:10152000C26380F8251080F82430012429E0026885
:10153000156825F00E0515600268156825F001058F
:101540001560826C156825F48075156090F844204C
:10155000056C02F01F0201FA02F26A60D0E913255D
:101560005560426D32B1156825F480751560D0E97B
:101570001625556080F8251080F82430816B01B164
:101580008847204670BD000070B5044600F03CF965
:101590000546601C02D004484068044400F034F959
:1015A000401BA042FAD370BD140000202DE9F04F7B
:1015B000DFF82092002301260324A9F1040B85B053
:1015C0000F2709F1040AABF1040EFAE006FA03F55D
:1015D0002A407CD091F804C00CF0030CBCF1010F40
:1015E00002D0BCF1020F26D1D0F808C0CDF800C05F
:1015F0004FEA430C04FA0CF8CDF810C0DDF800C037
:101600002CEA080CCDF800C0D1F80C80DDF810C031
:1016100008FA0CF8DDF800C048EA0C08C0F80880A9
:10162000D0F804C02CEA050C0D79C5F300159D40D7
:1016300045EA0C0545600D79ED43AD070ED0C56850
:101640004FEA430804FA08FC25EA0C05D1F808C063
:101650000CFA08FC4CEA050CC0F80CC00D7905F03A
:101660000305022D16D1DD0800EB850CCDF808C06E
:10167000DCF820805D074FEAD56C07FA0CF528EA04
:1016800005080D6905FA0CF5DDF808C045EA0805FE
:10169000CCF8205005684FEA430CCDF808C004FA96
:1016A0000CFC25EA0C0591F804C00CF00308DDF8E9
:1016B00008C008FA0CF848EA0508C0F800804D6830
:1016C00015F4403F7CD0444DD5F860C000E077E091
:1016D0004CF0010CC5F860C02D6E23F0030C05F032
:1016E000010500953D4D65440295AD684FEA837C48
:1016F0004FEA1C7807FA08FC25EA0C05B0F1904F78
:1017000006D0DFF8DCC0604505D14FF0010C20E0C9
:101710004FF0000C1DE0DFF8CCC0604502D14FF067
:10172000020C16E0DFF8C0C0604502D14FF0030C98
:101730000FE0DFF8B8C0604502D14FF0040C08E0BC
:10174000DFF8ACC0604502D14FF0050C01E04FF06E
:10175000060C0CFA08FC4CEA050C029DC5F808C002
:10176000D9F80050CC46D1F8048095435FEAC828E8
:1017700000D51543CCF80050DAF80050D446D1F823
:10178000048095435FEA882800D51543CCF80050C3
:10179000DBF80050DC46D1F8048095435FEA8838D6
:1017A00000D51543CCF80050DEF80050F446D1F8CF
:1017B000048095435FEAC83800D51543CCF8005043
:1017C0005B1C0A6832FA03F57FF400AF05B0BDE890
:1017D000F08F0000080401400010024000000140AA
:1017E0000004004800080048000C004800100048B1
:1017F000001400480069084000D0012070470AB179
:1018000081617047816270470148806870470000BD
:1018100014000020024881684268114481607047CA
:101820001400002010B50024032000F073F80F20EE
:1018300000F008F808B1012401E000F025F8204686
:1018400010BD000070B50E4E05460024706898B1BA
:101850004FF47A71B1FBF0F00A490968B1FBF0F07E
:1018600000F064FD40B9102D06D200222946501E1A
:1018700000F030F8356000E00124204670BD000023
:1018800014000020200000200A4882B0016E41F0C0
:1018900001010166016E01F001010091816D41F0CD
:1018A00080518165806D00F08050009002B000F0A2
:1018B000A1B8000000100240002809DB00F01F0260
:1018C000012191404009800000F1E020C0F80011A2
:1018D00070470000F0B40E4B1B680C46C3F30223A4
:1018E000C3F10705042D00D90425191D072901D2CC
:1018F000002300E0DB1E012606FA05F1491E214007
:1019000099409E40761E16403143F0BC03F0A9BEBC
:101910000CED00E0064900F0070208684FF6FF03EF
:10192000184040EA0220034A104308607047000054
:101930000CED00E00000FA052B492C4B0A6832211F
:101940004A432B4940B1B0F5007F086829D020F404
:10195000C06040F480602CE00868C0F34120022899
:1019600004D051F8800F20F4807022E0D1F880007C
:1019700020F48070C1F88000086820F4C06040F452
:1019800000700860B2FBF3F0401C00E0401E4A69A2
:10199000520501D50028F9D1486940050AD5032030
:1019A0007047C0F34120022806D051F8800F40F460
:1019B0008070086000207047D1F8800040F480708B
:1019C000C1F88000086820F4C06040F4007008602E
:1019D000B2FBF3F0401C00E0401E4A695205DBD523
:1019E0000028F9D1D8E700002000002040420F0075
:1019F000007000400248816841F480418160704776
:101A0000007000402DE9F8430446006800269D4D13
:101A100000035ED5A86D0027C00008D4A86D40F073
:101A20008050A865A86D012700F080500090DFF875
:101A30005892D9F8001041F48071C9F80010FFF7EE
:101A4000E3FE804606E000BFFFF7DEFEA0EB0800E5
:101A500002282BD8D9F80000C005F5D5D5F890009C
:101A600010F4407014D0216C814211D0D5F8900050
:101A7000D5F8901020F4407041F48031C5F89010F2
:101A8000D5F8901021F48031C5F89010C5F8900079
:101A9000C00711D0FFF7B8FE804641F2883907E051
:101AA000FFF7B2FEA0EB0801494501D903260BE080
:101AB000D5F890008007F3D5D5F89000216C20F47C
:101AC00040700843C5F890001FB1A86D20F0805009
:101AD000A8652078C00707D0D5F88800616820F095
:101AE00003000843C5F888002078800707D5D5F89B
:101AF0008800A16820F00C000843C5F88800207811
:101B0000400707D5D5F88800E16820F03000084389
:101B1000C5F888002078000707D5D5F88800216926
:101B200020F0C0000843C5F888002078800607D55B
:101B3000D5F88800616920F440600843C5F8880042
:101B40002078400607D5D5F88800A16920F44050D8
:101B50000843C5F888002078000607D5D5F8880026
:101B6000E16920F440400843C5F888002088C0059A
:101B700007D5D5F88800216A20F440300843C5F81D
:101B800088002088800507D5D5F88800616A20F490
:101B900040200843C5F88800208840050FD5D5F8B7
:101BA0008800A16A20F440100843C5F88800A06AA4
:101BB000B0F5801F03D1E86840F48010E860208809
:101BC00000050FD5D5F88800E16A20F440000843ED
:101BD000C5F88800E06AB0F5800F03D1E86840F4EA
:101BE0008010E8602088C0040FD5D5F88800216BEC
:101BF00020F040700843C5F88800206BB0F1807F6A
:101C000003D1E86840F48010E86020884FF000615C
:101C100080040ED5D5F88800626B20F04060104338
:101C2000C5F88800606B884203D1E86840F48010F2
:101C3000E860208840040ED5D5F88800A26B20F01B
:101C400040601043C5F88800A06B884203D1E86863
:101C500040F48010E860208800040FD5D5F8880093
:101C6000E16B20F040500843C5F88800E06BB0F10C
:101C7000805F03D1E86840F48030E8603046BDE81A
:101C8000F883000000100240007000402DE9F0478A
:101C90000E4605004FF0000725D0DFF8AC81D8F8DC
:101CA000000000F00F00B0420CD2D8F8001021F074
:101CB0000F013143C8F80010D8F8000000F00F0001
:101CC000B04210D12968614CC80741F2883A5AD015
:101CD0006868DFF87C91032808D0022820682DD09E
:101CE000400500282CDB0120BDE8F087206880013A
:101CF000F9D5E06800F00302E068C0F30310401C6F
:101D0000032A19D0534A00BFB2FBF0F0E268C2F3D5
:101D100006225043E268C2F34162521C5200B0FBFB
:101D2000F2F0484517D9A06810F0F00F0CD08807E2
:101D300011D5A86840B10EE0474AE5E78003D0E737
:101D400000F0B6F8484506D9A06820F0F00040F051
:101D50008000A0608027A068696820F00300084325
:101D6000A060FFF751FD814606E000BFFFF74CFD84
:101D7000A0EB090151453AD8A068696800F00C0051
:101D8000B0EB810FF2D12868810714D5400703D545
:101D9000A06840F4E060A0602878000705D5A0683E
:101DA00020F4605040F4E060A060A068A96820F0D2
:101DB000F000084304E0802F03D1A06820F0F00079
:101DC000A060D8F80010404601F00F01B14216D9CA
:101DD000016821F00F0131430160FFF715FD07464F
:101DE00007E000BFFFF710FDC11B514501D90320DB
:101DF0007AE7D8F8000000F00F00B042F2D128785E
:101E0000400705D5A068E96820F4E0600843A060B9
:101E10002878000706D5A068296920F4605040EAB8
:101E2000C100A06000F044F8A1680C4AC1F303119E
:101E3000515C01F01F01C840094908600948006869
:101E4000BDE8F047FFF7FEBC002002400010024052
:101E500000B4C4040024F40000366E013E5A0008A9
:101E60002000002014000020054806490068896809
:101E7000054AC1F30221515C01F01F01C8407047BF
:101E800020000020001002404E5A00080548064974
:101E900000688968054AC1F3C221515C01F01F0145
:101EA000C840704720000020001002404E5A000831
:101EB000184910B58868C0F381021748012A0BD071
:101EC0008A68164BC2F38102022A06D08A68C2F3DE
:101ED0008102032A03D0002010BD184610BDCA6835
:101EE00002F00304CA68C2F30312521C032C02D08E
:101EF000B0FBF2F001E0B3FBF2F0CA68C968C2F3CC
:101F000006225043C1F34161491C4900B0FBF1F086
:101F100010BD0000001002400024F40000366E01E5
:101F20002DE9F84304007AD02078FA4DC00747D055
:101F3000A868E96800F00C0001F003010C2802D049
:101F4000082817D001E0032914D06068B0F5803F5D
:101F500017D0B0F5A02F286817D020F48030286063
:101F6000286820F4802028606068E0B1FFF74CFC0E
:101F7000064614E02868800322D560680028D2D085
:101F80001EE0286840F48030EDE740F480202860AF
:101F9000F7E700BFFFF738FC801B642870D828687B
:101FA0008003F7D50CE0FFF72FFC064605E000BFE5
:101FB000FFF72AFC801B6428F0D828688003F7D438
:101FC000207880074CD5A868E96800F00C0001F083
:101FD00003010C2802D004280DD001E002290AD008
:101FE000E068002828682BD040F480702860FFF754
:101FF0000BFC064619E02868400502D5E068002879
:1020000091D06868217C20F0FE4040EA0160686061
:10201000C1480068FFF716FC002800D120E076E1F7
:10202000FFF7F2FB801B0228B8D828684005F7D5D7
:102030006868217C20F0FE4040EA016068600FE0A3
:1020400020F480702860FFF7DFFB064605E000BF44
:10205000FFF7DAFB801B0228A0D828684005F7D4D8
:102060002078000729D560690028D5F8940013D09E
:1020700040F00100C5F89400FFF7C6FB064606E0F5
:1020800090E000BFFFF7C0FB801B022886D8D5F880
:1020900094008007F6D510E020F00100C5F8940008
:1020A000FFF7B2FB064604E0FFF7AEFB801B0228F9
:1020B00078D8D5F894008007F6D42078400761D509
:1020C000A86D0026C00008D4A86D40F08050A86517
:1020D000A86D012600F08050009090480168C90565
:1020E00011D40168804641F480710160FFF78CFBD8
:1020F000074604E0FFF788FBC01B022852D8D8F837
:102100000000C005F6D5A068012815D00528D5F82F
:10211000900016D020F00100C5F89000D5F890008E
:1021200020F00400C5F89000A06841F28838B8B1EA
:10213000FFF76AFB07460EE0D5F8900040F001007B
:10214000F0E740F00400C5F89000F5E7FFF75CFB0E
:10215000C11B414526D8D5F890008007F6D50CE084
:10216000FFF752FB074604E0FFF74EFBC11B41455A
:1021700018D8D5F890008007F6D41EB1A86D20F0CD
:102180008050A8652078800629D5A0690028D5F858
:10219000980013D040F00100C5F89800FFF734FB19
:1021A000064606E077E000BFFFF72EFB801B022803
:1021B00077D8D5F898008007F6D510E020F0010018
:1021C000C5F89800FFF720FB064604E0FFF71CFB6C
:1021D000801B022865D8D5F898008007F6D4E069FE
:1021E000F0B3A968C1F38101032961D002282868EE
:1021F00020F0807028600BD0E86820F00300E860D1
:10220000E86847490840E860FFF7FEFA04464BE0FB
:10221000FFF7FAFA064604E0FFF7F6FA801B0228F9
:102220003FD828688001F7D4F4E908016FF00F0265
:1022300002EB01110843218A5204490802EB415183
:10224000A26841EA02210843217D4FF07E424908FD
:1022500002EB41610843217B40EAC160E96800E08C
:1022600062E0304A11400843E860286840F080701E
:102270002860E86840F08070E860FFF7C5FA04461F
:1022800005E000BFFFF7C0FA001B022809D8286844
:102290008001F7D548E004E0FFF7B6FA001B0228FA
:1022A00002D90320BDE8F88328688001F4D43BE01C
:1022B0000128F7D0E868226A00F00301914226D194
:1022C000616A00F0F0020901103991421FD1A26A3F
:1022D00000F4FE41B1EB022F19D194F82C2000F04C
:1022E0007841B1EBC26F12D1218E00F4C0024908CF
:1022F0004905A1F50011914209D194F8341000F07C
:10230000C06049084906A1F1007181420CD001204A
:10231000C8E70000001002401400002000700040D8
:10232000FFFFEEFE0C809F010020BBE710B5401EB2
:10233000B0F1807F01D3012010BD4FF0E024606137
:102340000F21601703F08DF90020A06107202061A4
:10235000002010BD7047704770470000F0B590F83E
:102360003C20012A4AD0012280F83C20CA688B68B0
:1023700022F440721A434B6822F480621A430B68BD
:1023800022F400621A430B6922F480521A434B690B
:1023900022F400521A430B6B22F480421A430B8B37
:1023A00022F4702242EA0342154C03680026154DC0
:1023B000A34201D0AB4203D1CF6922F080523A430D
:1023C000A34201D0AB4214D10F8D22F4700242EA35
:1023D00007520F6A22F080723A434F6A22F000726D
:1023E0003A43A34201D0AB4203D1C96A22F0005262
:1023F0000A435A6480F83C600020F0BD0220F0BD22
:10240000002C0140003401407047704770470000C5
:10241000F0B590F83C20012A3AD0012580F83C50D4
:10242000022280F83D2003685A689C68194E1A4FB2
:10243000B34201D0BB4204D122F4700C4A6842EA94
:102440000C02DFF858C002EA0C02D1F800C04CEAD6
:10245000020CC3F804C00268B2420DD0B2F1804F42
:102460000AD00F4B9A4207D00E4B9A4204D0BA4280
:1024700002D00D4B9A4204D1896824F0800319439D
:10248000916080F83D50002180F83C100846F0BD76
:102490000220F0BD002C0140003401408FFFFFFD01
:1024A000000400400008004000400140704710B5A3
:1024B000040003D094F83D0010B107E0012010BDE6
:1024C000002084F83C00204600F022F8022084F826
:1024D0003D00211D206802F00BF9012084F848001E
:1024E00084F83E0084F83F0084F8400084F84100FE
:1024F00084F8420084F8430084F8440084F84500DE
:1025000084F8460084F8470084F83D00002010BDA0
:1025100010B586B0044614216846FEF7A6F82A4A8C
:1025200021682A48914222D1816D41F002018165E2
:10253000816D01F002010591C16C41F00201C1649D
:10254000C06C002100F002000590102000900220D5
:10255000CDE90101CDE9031069461D48FFF726F8D2
:10256000002211461D20FFF7B5F91D2010E0194A81
:10257000914211D1816D41F004018165806D00228D
:1025800000F00400059011461E20FFF7A3F91E205D
:10259000FFF792F906B010BD0F4A914207D1016EC4
:1025A00041F400310166006E00F4003009E00B4A8E
:1025B0009142EFD1016E41F480210166006E00F47A
:1025C00080200590E6E70000000400400010024073
:1025D0000004004800080040004401400048014059
:1025E00090F83D10012901D001207047022180F8A8
:1025F0003D100168CA6842F00102CA6000681049D3
:1026000088420ED0B0F1804F0BD00E49884208D0DE
:102610000D49884205D00D49884202D00C498842B4
:1026200007D181680B4A1140062906D0B1F5803FD9
:1026300003D0016841F001010160002070470000F3
:10264000002C01400004004000080040003401401C
:10265000004001400700010070B5044690F83C00BE
:102660000025012814D0012684F83C60022084F85B
:102670003D0022689068364B184020F47F409060FF
:10268000086870282ED010DC10F00F0F03D021E066
:102690004FF0020070BD4FEA2012072A1AD2DFE87D
:1026A00002F0525252524A3840002A4BC21A984203
:1026B00049D009DCB0F5805F0DD0B0F5005F1CD0CB
:1026C000B0F1101F06D13EE0102A3CD0202A3AD0AB
:1026D000502A38D0012584F83D60002084F83C0061
:1026E000284670BDCB68D1E90121206802F065F869
:1026F0002068816841F0770109E0CB68D1E90121C8
:10270000206802F05AF82068816841F480418160B5
:10271000E1E7CA684968206802F0FAF950212068A8
:1027200006E0CA684968206802F03AFA6021206829
:1027300002F04EF8CFE7CA684968206802F0E8F96D
:1027400040212068F4E7226801461046F0E70000C7
:1027500088FFCEFF200010002DE9F04105460068FB
:102760000026154C154FB0F1804F0ED100212846A0
:1027700000F016FD80B2E08029684E62B7FBF0F0F1
:1027800020810021284600F015F90D49286888426B
:1027900010D10021284600F003FD80B26080296836
:1027A0004E62B7FBF0F0A0802846BDE8F041002162
:1027B00000F000B9BDE8F0812400002040420F0085
:1027C000000400402DE9F041054690F83C00002649
:1027D0000C46012810D0012085F83C0072B1042A73
:1027E0001CD0082A2CD00C2A50D00126002085F8B5
:1027F0003C003046BDE8F0810220FBE7D4E900123E
:10280000E368286802F096F92868816921F00C01D4
:10281000816128688169A26811430FE0D4E9001240
:10282000E368286802F0CEF92868816921F44061E4
:10283000816128688169A26841EA02218161D5E746
:102840002868D4E9002C277B016A21F48071016299
:10285000C169036A21F0030141EA0C0121F0F00C87
:1028600039074FF420674CEA116123F4206307EA2B
:1028700002221A43C16102622868C16921F00C0179
:10288000C1612868C169A268114328E02868D4E9B9
:102890000027E168036A23F480530362D0F81CC068
:1028A000036A2CF4407C4CEA07274FF6FF7C27F4A0
:1028B00070470CEA013139434FF4204723F4204399
:1028C00007EA02321A43C16102622868C16921F431
:1028D0004061C1612868C169A26841EA0221C16101
:1028E00084E710B5040003D094F83D0010B107E070
:1028F000012010BD002084F83C00204600F022F8A2
:10290000022084F83D00211D206801F0F1FE012025
:1029100084F8480084F83E0084F83F0084F84000C2
:1029200084F8410084F8420084F8430084F84400AD
:1029300084F8450084F8460084F8470084F83D0098
:10294000002010BD10B586B0044614216846FDF77E
:102950008CFE2068B0F1804F27D11548816D41F081
:1029600001018165816D01F001010591C16C41F0AA
:102970000101C164C06C694600F0010005904FF48C
:10298000004000900220019000200290039001205E
:1029900004904FF09040FEF709FE002211461C20E3
:1029A000FEF798FF1C20FEF787FF06B010BD000061
:1029B0000010024010B5044679B1042912D008294C
:1029C00015D00C2918D0102919D094F8430000BF55
:1029D00094F84720012817D114E094F83E0094F8A9
:1029E0004420F7E794F83F0094F84520F2E794F884
:1029F000400094F84620EDE794F84100E8E794F8A9
:102A00004200E5E7012A01D0012010BD022081B378
:102A1000042934D0082937D00C293AD010293BD0CA
:102A200084F8430084F847000122206801F0B8FED2
:102A30001B49206888420ED0B0F1804F0BD0194955
:102A4000884208D01849884205D01849884202D0E7
:102A50001749884207D18168164A1140062906D0D5
:102A6000B1F5803F03D0016841F001010160002011
:102A700010BDFFE784F83E0084F84400D4E784F8F2
:102A80003F0084F84500CFE784F8400084F8460012
:102A9000CAE784F84100C5E784F84200C2E70000B5
:102AA000002C0140000400400008004000340140B8
:102AB000004001400700010030B50446002571B117
:102AC000042911D0082914D00C2917D0102918D0A6
:102AD00094F8430094F84720012817D114E094F8A3
:102AE0003E0094F84420F7E794F83F0094F845201E
:102AF000F2E794F8400094F84620EDE794F841009E
:102B0000E8E794F84200E5E7012A01D0012030BD52
:102B1000022079B1042916D008291DD00C2949D0EA
:102B200010294AD084F8430084F847000C2947D084
:102B300001253DE084F83E0084F844002068C26826
:102B400042F0020210E084F83F0084F8450020685B
:102B5000C26842F0040207E084F8400084F84600AE
:102B60002068C26842F00802C2600122206801F0B9
:102B700017FE1649206888420ED0B0F1804F0BD066
:102B80001349884208D01349884205D01249884227
:102B900002D01249884207D18168114A11400629A2
:102BA00006D0B1F5803F03D0016841F0010101601A
:102BB000284630BD84F84100B6E784F84200B3E708
:102BC0002068C26842F01002CEE70000002C0140ED
:102BD0000004004000080040003401400040014073
:102BE0000700010070B50446006801694FF0000558
:102BF000C943890715D4C168C943890711D4E91E9F
:102C0000016101202077206880698007204602D07A
:102C1000FFF7A2FD04E000F01BF9204600F0DDF90B
:102C2000257720680169C943490717D4C168C9439A
:102C3000490713D46FF00401016102202077206856
:102C4000806910F4407F204602D0FFF785FD04E044
:102C500000F0FEF8204600F0C0F9257720680169F1
:102C6000C943090716D4C168C943090712D46FF0D4
:102C700008010161042020772068C0698007204690
:102C800002D0FFF769FD04E000F0E2F8204600F012
:102C9000A4F9257720680169C943C90617D4C1681A
:102CA000C943C90613D46FF01001016108202077D1
:102CB0002068C06910F4407F204602D0FFF74CFD29
:102CC00004E000F0C5F8204600F087F92577206879
:102CD0000169C943C90708D1C168C943C90704D1FB
:102CE000891E0161204600F0F7F920680169C94397
:102CF000090609D4C168C943090605D46FF08001EB
:102D000001612046FFF727FB20680169C943C90517
:102D100009D4C168C943090605D46FF48071016103
:102D20002046FFF717FB20680169C943490609D40B
:102D3000C168C943490605D46FF0400101612046CE
:102D400000F043FA20680169C943890609D4C168C3
:102D5000C943890605D46FF0200101612046FFF7C1
:102D6000FBFA20680169C943C90209D4C168C94393
:102D7000C90205D46FF4801101612046FFF745FBBD
:102D800020680169C943890209D4C168C94389021D
:102D900005D46FF4001101612046FFF735FB206870
:102DA0000169C943490209D4C168C943490205D42C
:102DB0006FF4800101612046FFF728FB206801695C
:102DC000C94309020BD4C168C943090207D46FF48F
:102DD000000101612046BDE87040FFF767BB70BD90
:102DE00070B586B0044614216846FDF73EFC154ECA
:102DF000256800221449022401234FF09040B54277
:102E000009D1CD6C45F00105CD64C96C01F001011B
:102E1000059140210BE00D4EB54210D1CD6C45F02F
:102E20000105CD64C96C01F001010591802100917B
:102E3000CDE901426946CDE90323FEF7B7FB06B0B1
:102E400070BD0000004401400010024000480140F5
:102E5000704770B5044690F83C0000260D460128E6
:102E60000BD0012084F83C000C2A4AD007DC82B148
:102E7000042A20D0082A06D131E0022070BD102A91
:102E800053D0142A63D00126002084F83C00304639
:102E900070BD206801F0A6FC2068816941F008013E
:102EA00081612068816921F0040181612068816964
:102EB0002A69114311E0206801F0E2FC2068816971
:102EC00041F4006181612068816921F48061816140
:102ED000206881692A6941EA02218161D4E720687A
:102EE00001F016FD2068C16941F00801C161206848
:102EF000C16921F00401C1612068C1692A691143D7
:102F000011E0206801F04CFD2068C16941F40061C6
:102F1000C1612068C16921F48061C1612068C16913
:102F20002A6941EA0221C161AEE7206801F080FD13
:102F30002068016D41F0080101652068016D21F0F4
:102F4000040101652068016D2A69114311E02068C0
:102F500001F0A6FD2068016D41F400610165206863
:102F6000016D21F4806101652068016D2A6941EAE3
:102F70000221016588E710B5040003D094F83D00F4
:102F800010B107E0012010BD002084F83C0020466D
:102F900000F022F8022084F83D00211D206801F095
:102FA000A7FB012084F8480084F83E0084F83F0025
:102FB00084F8400084F8410084F8420084F843001B
:102FC00084F8440084F8450084F8460084F84700FB
:102FD00084F83D00002010BD7047704730B50446AE
:102FE000022269B1042912D0082917D00C291CD05B
:102FF000102921D094F84300012824D0012030BDAD
:1030000094F83E000128F9D184F83E201DE094F8A0
:103010003F000128F2D184F83F2016E094F84000E8
:103020000128EBD184F840200FE094F841000128FA
:10303000E4D184F8412008E094F842000128DDD171
:1030400084F8422001E084F843200122206801F046
:10305000A7FB194B20681949194A984209D08842A0
:1030600007D0904205D0174DA84202D0164DA84275
:1030700003D1456C45F400454564206898420CD066
:10308000B0F1804F09D0114B984206D0104B9842B6
:1030900003D0884201D0904207D181680D4A114087
:1030A000062906D0B1F5803F03D0016841F0010147
:1030B0000160002030BD0000002C014000340140C0
:1030C000004001400044014000480140000400402D
:1030D000000800400700010070B501682D488142DA
:1030E0004FD12D4D01212846FEF784FB00B1012070
:1030F0002A4C022160702846FEF77CFB00B10120BB
:10310000E07104212846FEF775FB00B101206073D1
:1031100001214FF09040FEF76DFB00B1012000212E
:10312000E0740B465FF0010501EB410014F810203C
:1031300022B1012A0AD0022A1FD112E004EB400278
:103140005678D6B904F81050938016E004EB40028C
:10315000527812B104F810300FE0022204F8102067
:103160000BE004EB40025678012E0BD09088401CF7
:1031700080B29080462800D9D570491CC9B2042974
:10318000D2D370BD04F8103090884628F5D29570DF
:10319000F3E7000000080040000400483C03002062
:1031A0000246002041B1042909D008290AD00C297F
:1031B00001D11068006C70471068406B7047106850
:1031C000806B70471068C06B7047704790F8801034
:1031D000012918D0012180F880102421C0F8841022
:1031E00050F8641B0A680B6823F001030B6022F09F
:1031F00000510022026050F8643C196020210162F5
:10320000027710467047022070477047704770B5CC
:10321000044690F8800001281DD0012084F8800029
:103220002420C4F8840020680568026822F00102A6
:1032300002602068826822F060620A438260204651
:1032400001F0DCFC206805602020C4F88400002028
:1032500084F8800070BD022070BD70B5044690F8FF
:10326000800001281DD0012084F880002420C4F8AB
:10327000840020680568026822F00102026020686C
:10328000826822F060420A438260204601F0B6FC68
:10329000206805602020C4F88400002084F88000A5
:1032A00070BD022070BD7047704770472DE9F04136
:1032B00003680446D86919689A6840F60F052842E1
:1032C0004FF0000509D186067ED501F0200602F0F8
:1032D00080573E4378D0216F27E1A94EA94F164071
:1032E0000F40374370D0C70709D0CF0507D5012756
:1032F0001F62D4F88C3043F00103C4F88C3083078C
:103300000AD5D30708D0276802233B62D4F88C3053
:1033100043F00403C4F88C3043070AD5D30708D020
:10332000276804233B62D4F88C3043F00203C4F8CE
:103330008C3003070CD501F02003334308D02668F6
:1033400008233362D4F88C3043F00803C4F88C307F
:1033500003050BD54B0109D526684FF40063336292
:10336000D4F88C3043F02003C4F88C30D4F88C307F
:10337000002B3AD0800609D501F0200002F08051E0
:10338000084303D0216F09B120468847D4F88C0048
:1033900021688968490602D410F0280F27D02046FA
:1033A00001F0ECFC2068806840061BD520680830DE
:1033B00050E8001F21F0400140E80012002AF5D13A
:1033C000E06F78B1704900E017E08163E06FFEF7CD
:1033D0009EF8002809D0E06F816B00E02046BDE830
:1033E000F04108472046FFF760FFBDE8F081204626
:1033F000FFF75BFFC4F88C50F7E7E76E2026012F3C
:103400007ED1C7067CD5CF067AD5102018622068F9
:103410008068400642D5E16F086840680004000CEF
:10342000E3D0B4F85C208242DFD9A4F85E000868DB
:10343000006880062BD4206850E8001F21F48071BA
:1034400040E80012002AF6D12068083050E8001F3A
:1034500021F0010140E80012002AF5D1206808306F
:1034600050E8001F21F0400140E80012002AF5D189
:10347000C4F88860E566216851E8000F20F010006C
:1034800041E80002002AF6D1E06FFEF70BF8B4F82D
:103490005C00B4F85E10401A81B22CE0B4F85C0015
:1034A000B4F85E10401A81B2B4F85E0000289CD0D7
:1034B00000299AD0226852E8000F20F4907042E868
:1034C0000003002BF6D12E4BDB432068083050E878
:1034D000002F1A4040E80027002FF6D1C4F888607A
:1034E000E5662567226852E8000F20F0100042E8E8
:1034F0000003002BF6D12046FFF787FE75E7FFE7B4
:10350000C70209D5570207D54FF48010186220462C
:10351000BDE8F041FFF7C8BE03060AD501F08003FD
:1035200002F40002134304D0616F00297FF456AF08
:103530005BE7420611D54A060FD52046016851E8DF
:10354000002F22F0400241E80023002BF6D1C0F802
:103550008460456700F030F947E7020206D54A006B
:1035600004D52046BDE8F041FFF79DBEC001C5D59A
:103570000029C3DA2046BDE8F041FFF747BE00004E
:103580000100001020010004694D000810B504007E
:1035900003D0D4F8840010B107E0012010BD002052
:1035A00084F88000204600F027F82420C4F8840026
:1035B0002068016821F001010160204601F020FE31
:1035C0000128EBD0A06A10B1204601F039FB206839
:1035D000416821F4904141602068816821F02A010E
:1035E00081602068016841F0010101602046BDE86A
:1035F000104001F089BB000010B598B004461421BA
:1036000011A8FDF732F844216846FDF72EF81B4952
:103610002068884230D101200024CDE900046846AA
:10362000FEF7F0F908B1FDF752FB1548016E41F4C1
:1036300080410166016E01F480411691C16C41F038
:103640000101C164C06C11A900F0010016904FF493
:10365000C06011900220CDE912040720CDE914408A
:103660004FF09040FDF7A2FF002211462520FEF703
:1036700031F92520FEF720F918B010BD00380140BF
:103680000010024030B4D0F88830202B20D1E1B1B6
:10369000DAB190F88030012B1AD0012380F8803005
:1036A0000023C3660B4C0368A3420BD05B681B026C
:1036B00008D5046854E8003F43F0806344E80035CF
:1036C000002DF6D130BC01F0D5BE012030BC7047D2
:1036D0000220FBE7008000400549064B48780A7845
:1036E0001A54401C487001220348FFF7CBBF00006A
:1036F0002400002054030020AC0200202DE9F843F0
:103700000446D0F884001F4616460D46202851D1A5
:10371000DDB1D6B194F8800001284BD0012084F8A7
:1037200080004FF00008C4F88C802120C4F8840089
:103730001834FEF769F8A6878146E68754F8100C1E
:10374000183CB0F5805F03D004E00120BDE8F883A9
:10375000206920B12E46002584F8808010E00026E4
:10376000FAE78021204601F011FFB8B9C6B116F87A
:10377000010B21688862B4F85600401EA4F8560078
:10378000B4F856004B464FF0000200970028E8D1ED
:103790004FF04001204601F0F9FE30B10320D5E79B
:1037A00035F8020BC0F30800E3E72020C4F88400DA
:1037B0000020CBE70220C9E77047FEE770B5082478
:1037C000002500F00DFF13E06806050E002000F054
:1037D000EFFE142001F055FF142001F052FF0120EC
:1037E00000F0E6FE142001F04CFF00F0EDFE054372
:1037F000641EE4B2E8D2002000F0DAFE142001F0EA
:1038000040FF00F00FFF284670BD70B50446082544
:1038100016E000F0CDFE142001F033FF04F080002C
:1038200000F0F4FE142001F02CFF6006040E1420BA
:1038300001F027FF012000F0BBFE142001F021FF62
:103840006D1EEDB24FF00000E3D200F0B1FEBDE816
:103850007040142001F015BF10B5012000F0D6FE15
:10386000142001F00EFF142001F00BFF012000F0E6
:103870009FFE142001F005FF002000F099FEBDE836
:103880001040142001F0FDBE10B5012000F0BEFE76
:10389000142001F0F6FE012000F08AFE142001F051
:1038A000F0FE002000F0B2FE142001F0EAFE00203D
:1038B00000F07EFEBDE81040142001F0E2BE10B51D
:1038C000002000F075FE142001F0DBFE002000F067
:1038D0009DFE142001F0D5FE012000F069FE1420A9
:1038E00001F0CFFE012000F091FEBDE81040142051
:1038F00001F0C7BE10B5052400F072FE142001F0DF
:10390000C0FE012000F054FE142001F0BAFE05E0D4
:10391000641EA4B2142001F0B4FE6CB100F054FE99
:103920000028F5D100F07EFE002000F041FE1420BA
:1039300001F0A7FE002010BD00F074FEFFF7BFFFEE
:10394000012010BD00B585B014216846FCF78DFE3E
:103950004FF6FF70009000200321CDE90201019095
:1039600069460248FDF722FE05B000BD0008004888
:1039700000B585B014216846FCF777FE4FF6FF705E
:1039800000900120019003200390002002906946DE
:103990000248FDF70BFE05B000BD0000000800481E
:1039A00070B5002406462146204600F003F900F0D9
:1039B00041F94FF49635304600F010F9641CAC42E2
:1039C000F9D370BD30B587B014216846FCF74DFEC1
:1039D0001E48C16C41F00401C164C16C01F00401D6
:1039E0000591C16C41F00101C164C16C01F001019C
:1039F0000591C16C41F00201C164C06C012500F069
:103A0000020005904FF44870CDE9000500240394AE
:103A1000694602940E48FDF7C9FD28020394009000
:103A2000CDE901544FF0904469462046FDF7BEFDB4
:103A3000FFF79EFFA06940F48070A0610448183031
:103A4000016841F40871016007B030BD0010024008
:103A500000040048203AD2B2034B02EB420203EBCF
:103A6000021200F019B80000565A0008F0B50E46D0
:103A70000746002540F23F1407E021463846FFF78D
:103A8000E9FF103C6D1CA4B2761C3278002A01D0EC
:103A9000142DF2D3F0BD00002DE9F04791468A467F
:103AA0000026044600F086F8DFF84080012700BFBA
:103AB00000F0C0F85FF0000539F8160007FA05F1CC
:103AC0000842404601D1408800E0008800F086F8B6
:103AD0006D1C102DF0D3641CE4B25146204600F05A
:103AE00069F8761C182EE3D3BDE8F0872E0000207D
:103AF00010B5FFF767FF002000F014F8084CA08015
:103B0000A088A0F50241303906D000F04FFC00201B
:103B100000F008F8A08010BD00F0BFFBF7E7000040
:103B20002E00002070B51D490A6842F400720A6038
:103B30000A6842F480720A60184C103C226842F015
:103B400020022260164A1060086840F020000860D9
:103B500000BF00BF00BF206840F020002060206848
:103B600040F480702060FFF7EDFE4FF09041886ACE
:103B700040F48070886200BF00BF00BF0848001F8B
:103B8000006885B2886940F480708861FFF7F0FEB4
:103B9000206840F400702060284670BD280400486A
:103BA0001408004801B5BDF800000149488008BD6F
:103BB0002E00002010B50C460146202000F068F8C9
:103BC0002146BDE81040212000F062B801B5BDF8E3
:103BD00000000149088008BD2E000020134A11682A
:103BE00041F400711160114910390B6843F480737E
:103BF0000B600B6843F020030B600D4B18601068DE
:103C000040F02000106000BF00BF00BF086840F017
:103C100020000860086840F48070086000BF00BFA2
:103C200000BF086840F4007008607047280400482E
:103C3000140800481449086840F4007008600868D7
:103C400040F48070086010481038026842F020028A
:103C500002600E4B22221A600A6842F020020A60BB
:103C600000BF00BF00BF016841F020010160016892
:103C700041F48071016000BF00BF00BF016841F4E2
:103C800000710160704700002804004814080048D3
:103C9000184B10B51A6842F400721A601A6842F4A0
:103CA00080721A60134A103A146844F020041460B9
:103CB000114C2060186840F02000186000BF00BF61
:103CC00000BF106840F020001060106840F4807061
:103CD00010602160186840F02000186000BF00BF2D
:103CE00000BF106840F020001060106840F4807041
:103CF000106010BD280400481408004810B50122C7
:103D00004FF6FF710748FDF77AFD074C01220421A9
:103D10002046FDF774FD20460022BDE81040042136
:103D2000FDF76DBD00080048000C004800EB810065
:103D3000006E00F0F84070478068C0F3C000704724
:103D40008068C0F3800070478068C0F380007047CF
:103D5000042303EAD15310B518444369C1F3045155
:103D600007248C40A3438A401343436110BD00EBFA
:103D70008100016E21F0004111430166704700008F
:103D800030B58BB0002408940994202168460A9429
:103D9000FCF76BFC1C484FF0A041042501604FF478
:103DA0000031C0E90114C4600461C0E9054504772D
:103DB00044770121016280F82440C462046380F8E2
:103DC0003840C46380F84040FDF7FCF908B1FCF7C7
:103DD0007EFF08A90C480894FCF77CFF08B1FCF7AB
:103DE00076FF0A4800900620CDE901047F20059463
:103DF000CDE9030569460448FCF7D8FF002801D047
:103E0000FCF765FF0BB030BD580000200008302ED5
:103E100030B589B020216846FCF727FC19481849BD
:103E2000002401604902C0E90114C4600425046152
:103E3000C0E90545047744770121016280F82440F8
:103E4000C462046380F83840C46380F84040FDF7E2
:103E5000B9F908B1FCF73BFF0B4800900620CDE90B
:103E600001047F200594CDE9030569460548FCF768
:103E70009DFF002801D0FCF72AFF09B030BD0000EB
:103E800000010050C40000200080F03E2DE9F04306
:103E900087B014216846FCF7E8FB3748C16C41F055
:103EA0000401C164C16C01F004010591C16C41F0D1
:103EB0002001C164C16C01F020010591C16C41F089
:103EC0000101C164C16C01F001010591C16C41F0B7
:103ED0000201C164C16C01F002010591C16C41F0A5
:103EE0000801C164C06C254F00F008004FF47F4406
:103EF0000590012221463846FDF781FCDFF88080DD
:103F0000002204214046FDF77AFCDFF878904FF458
:103F10007076002231464846FDF771FC0125CDE957
:103F2000004500240294694638460394FDF73EFBA1
:103F3000CDE9005469464FF090400295FDF736FBFD
:103F400007208DE8310069464846FDF72FFB042025
:103F50000090CDE90154694640460394FDF726FBE5
:103F60000096CDE90154694648460394FDF71EFBCF
:103F700007B0BDE8F08300000010024000080048D0
:103F8000000C00480004004810B594B01C210DA896
:103F9000FCF76BFB34216846FCF767FB20481F49A0
:103FA0000024016041F63F71C0E901146321C0E9BA
:103FB000031444618461FEF77AFA08B1FCF787FEC6
:103FC0001748FEF7D8FF08B1FCF781FE60200D907E
:103FD0001420CDE90E0410941194129400220DA91E
:103FE0000F481394FEF735FF08B1FCF770FE0094FC
:103FF0004FF40050CDE904400194029403940694D8
:10400000694607480C94FEF7A9F908B1FCF75FFE72
:104010000348FEF7E5FE14B010BD00000044014067
:104020001402002010B594B01C210DA8FCF71DFB54
:1040300034216846FCF719FB20481F490024016021
:1040400040F69F71C0E901146321C0E90314446183
:104050008461FEF72CFA08B1FCF739FE1748FEF729
:104060008AFF08B1FCF733FE60200D901420CDE9E3
:104070000E0410941194129400220DA90F48139469
:10408000FEF7E7FE08B1FCF722FE00944FF4005063
:10409000CDE90440019402940394069469460748CC
:1040A0000C94FEF75BF908B1FCF711FE0348FEF72C
:1040B00097FE14B010BD00000048014060020020CF
:1040C00010B588B000241848059406940494009410
:1040D000019402944FF08041039401604F21C0E9A4
:1040E0000114611EC0E903148461FEF7FAFB08B1F4
:1040F000FCF7EDFD049404A90B480694FEF788F93B
:1041000008B1FCF7E4FD0120CDE900400294002253
:10411000694605480394FEF755FB002801D0FCF7DB
:10412000D6FD08B010BD00003001002010B58CB0E5
:1041300000240594224804940694079408940A9451
:1041400009940094019402941C49039401604F2146
:10415000C0E9011442F20F71C0E903148461FEF753
:10416000A6F908B1FCF7B3FD4FF48050049004A900
:104170001348FEF771FA08B1FCF7A9FD1048FEF7E5
:10418000B0FB08B1FCF7A3FD089408A90C480A94F9
:10419000FEF73EF908B1FCF79AFD0120CDE9004099
:1041A00002940022694606480394FEF70BFB0028A0
:1041B00001D0FCF78CFD0CB010BD000000040040E5
:1041C0007C01002010B588B00024174800940194A9
:1041D00002940394049405941249069401604F21BB
:1041E000C0E9011442F20F71C0E903148461FEF7C3
:1041F0005EF908B1FCF76BFD4FF480500090694602
:104200000948FEF729FA08B1FCF761FD049404A9F6
:1042100005480694FEF7FCF8002801D0FCF757FD8E
:1042200008B010BD00080040C8010020184810B5B3
:10423000164901604FF416514160002181600C2243
:10424000C160C0E904128161C161016241628162A1
:10425000FFF79CF908B1FCF73AFD00210C48FEF786
:10426000FCFF08B1FCF733FD00210948FEF7CFFF42
:1042700008B1FCF72CFD0648FEF7A8FF002803D084
:10428000BDE81040FCF723BD10BD00000038014020
:10429000AC020020FEE7FEE7704730B501210020A8
:1042A000FFF7F6FC4FF47A70FCF703FD00210120C4
:1042B000FFF7EEFC41F290711020FFF7E9FC4FF49C
:1042C0001C516020FFF7E4FC01216120FFF7E0FCB6
:1042D00002214620FFF7DCFC48F210011320FFF713
:1042E000D7FC48F2FE011220FFF7D2FC4FF4A06188
:1042F0000220FFF7CDFC41F230010320FFF7C8FC9C
:1043000040F2033421463020FFF7C2FC2146312021
:10431000FFF7BEFC21463220FFF7BAFCE51E294616
:104320003320FFF7B5FC03213420FFF7B1FC214611
:104330003520FFF7ADFC14213620FFF7A9FC2146FC
:104340003720FFF7A5FC21463820FFF7A1FC2146C6
:104350003920FFF79DFC29463A20FFF799FC0321FD
:104360003B20FFF795FC21463C20FFF791FC4FF4E2
:10437000A0513D20FFF78CFC4FF400719220FFF715
:1043800087FC21469320FFF783FC40F60D01902027
:10439000FFF77EFC41F218010320FFF779FCBDE82E
:1043A000304040F273110720FFF772BC10B543F2A2
:1043B0000801E320FFF76CFC1221E720FFF768FCFF
:1043C00041F23121EF20FFF763FC00210120FFF7CC
:1043D0005FFC4FF4E0610220FFF75AFC41F230012C
:1043E0000320FFF755FC00210420FFF751FC40F2A9
:1043F00007210820FFF74CFC00210920FFF748FCAB
:1044000000210A20FFF744FC00210C20FFF740FCAC
:1044100000210D20FFF73CFC00210F20FFF738FCA6
:1044200000211020FFF734FC07211120FFF730FC9A
:1044300000211220FFF72CFC00211320FFF728FC9D
:10444000C820FDF7A1F841F290611020FFF720FC91
:1044500040F227211120FFF71BFC3220FDF794F8D2
:104460001D211220FFF714FC3220FDF78DF84FF4C8
:1044700000611320FFF70CFC14212920FFF708FC32
:104480000B212B20FFF704FC3220FDF77DF80021E3
:104490002020FFF7FDFB00212120FFF7F9FB07217A
:1044A0003020FFF7F5FB40F207713120FFF7F0FBFA
:1044B00006213220FFF7ECFB40F204713520FFF7B4
:1044C000E7FB41F604713620FFF7E2FB04213720B9
:1044D000FFF7DEFB00213820FFF7DAFB40F2067120
:1044E0003920FFF7D5FB40F201713C20FFF7D0FBEC
:1044F0000F213D20FFF7CCFB00215020FFF7C8FB28
:10450000EF215120FFF7C4FB00215220FFF7C0FB31
:1045100040F23F115320FFF7BBFB4FF41C516020CA
:10452000FFF7B6FB01216120FFF7B2FB00216A20F3
:10453000FFF7AEFB00218020FFF7AAFB00218120BE
:10454000FFF7A6FB00218220FFF7A2FB00218320BA
:10455000FFF79EFB00218420FFF79AFB00218520B6
:10456000FFF796FB10219020FFF792FB002192208D
:10457000FFF78EFB03219320FFF78AFB4FF488712E
:104580009520FFF785FB00219720FFF781FB002195
:104590009820FFF77DFB41F218010320FFF778FB1D
:1045A000BDE8104040F273110720FFF771BB000017
:1045B00008B1044801E003481030016841F04001AF
:1045C000016070471804004810B580210348FDF7CA
:1045D00011F9012800D0002010BD0000000400489F
:1045E00000B585B014216846FCF73FF880200090A4
:1045F00000200190012002900220039069460248A9
:10460000FCF7D4FF05B000BD0004004808B1044821
:1046100001E003481030016841F0800101607047FB
:104620001804004800B585B014216846FCF71DF851
:104630008020009011200190002002900220039021
:1046400069460248FCF7B2FF05B000BD000400480F
:104650007047FDF7DFB810B594B038216846FCF715
:1046600004F814210EA8FCF700F84FF40070FDF7D1
:1046700063F9012000900004019002200324CDE999
:1046800007041421CDE90A100C900D900994684696
:10469000FDF746FC08B172B6FEE70F20CDE90E0427
:1046A000002010901190129002210EA8FDF7EEFA52
:1046B000002801D072B6FEE714B010BD02480168B0
:1046C00041F470010160704788ED00E00148FEF799
:1046D00089BA0000300100200148FEF783BA0000CB
:1046E0007C0100200148FEF77DBA0000C8010020CF
:1046F0002DE9F0430268234B234D244E244C4FF008
:104700008049984207D0484505D0A84203D0B0421E
:1047100001D0A04203D122F070074A683A431D4FEE
:10472000DFF874C0DFF8748098420DD048450BD094
:10473000A84209D0B04207D0A04205D0B84203D069
:10474000604501D0404503D122F44075CA682A4330
:104750004D6922F080022A4302608A68C2620A68B8
:104760008262984207D0A04205D0B84203D060458B
:1047700001D0404501D10969016301214161BDE8D2
:10478000F0830000002C01400004004000080040BD
:104790000034014000400140004401400048014015
:1047A00010B501F01F030121046A99408C43046293
:1047B000016A9A401143016210BD10B5846842EA53
:1047C000032224F47F440A432243826010BD000088
:1047D0008268034B1A400A4342F007018160704728
:1047E0008FFFCFFF2DE9F043026A22F0010202623F
:1047F000056A436882691C4C25F0020522400C685A
:1048000022F0030214438A68194E2A43174D194FA8
:10481000DFF864C0DFF86490A84207D0B04205D04A
:10482000B84203D0604501D0484506D122F00808BF
:10483000CA6842EA080222F00402A84207D0B04245
:1048400005D0B84203D0604501D0484505D14D6937
:1048500023F440731D438B692B4343608461496893
:1048600041630262BDE8F0838FFFFEFF002C014030
:104870000034014000400140004401400048014034
:10488000F0B5026A22F010020262056A426883698A
:10489000194C1B4E23400C6823F4407343EA042454
:1048A00025F020038D6843EA0513144DA84201D07A
:1048B000B04206D1CF6823F0800343EA071323F008
:1048C0004003A8420AD0B04208D00E4DA84205D0FD
:1048D0000D4DA84202D00D4DA84207D14D6922F4DA
:1048E000406242EA85028D6942EA85024260846143
:1048F000496881630362F0BDFF8FFFFE002C014019
:1049000000340140004001400044014000480140A3
:10491000F0B5026A22F480720262056A4368C269D5
:10492000194C1B4E22400C6822F00302144325F45C
:1049300000728D6842EA0522144DA84201D0B042AF
:1049400006D1CF6822F4006242EA072222F4806294
:10495000A8420AD0B04208D00E4DA84205D00E4D54
:10496000A84202D00D4DA84207D14D6923F440530F
:1049700043EA05138D6943EA05134360C46149683E
:10498000C1630262F0BD00008FFFFEFF002C0140FA
:104990000034014000400140004401400048014013
:1049A000F0B5026A22F480520262056A4268C36965
:1049B000194C1B4E23400C6823F4407343EA042433
:1049C00025F400538D6843EA0533144DA84201D005
:1049D000B04206D1CF6823F4004343EA073323F4FF
:1049E0008043A8420AD0B04208D00E4DA84205D05C
:1049F0000D4DA84202D00D4DA84207D14D6922F4B9
:104A0000404242EA85128D6942EA85124260C461E1
:104A1000496801640362F0BDFF8FFFFE002C014076
:104A20000034014000400140004401400048014082
:104A300030B5026A22F480320262046A4268036D71
:104A4000114D2B400D681D4324F400330C8943EABB
:104A500004430E4CA0420BD00D4CA04208D00D4C8C
:104A6000A04205D00C4CA04202D00C4CA04204D174
:104A70004C6922F4803242EA0422426005654968AA
:104A80008164036230BD00008FFFFEFF002C0140F7
:104A90000034014000400140004401400048014012
:104AA00030B5026A22F480120262046A4268036D21
:104AB000114D24F400142B400D6843EA05230D89A1
:104AC00044EA05540D4DA8420BD00D4DA84208D024
:104AD0000C4DA84205D00C4DA84202D00B4DA84267
:104AE00004D14D6922F4802242EA852242600365A6
:104AF0004968C164046230BDFF8FFFFE002C014095
:104B000000340140004001400044014000480140A1
:104B100010B5036A046A24F001040462846924F075
:104B2000F00444EA021423F00A020A438461026298
:104B300010BD000070B5046A24F0010404628469A9
:104B4000056A124EB0420ED0B0F1804F0BD0104E1D
:104B5000B04208D00F4EB04205D00F4EB04202D046
:104B60000E4EB04203D124F00304144301E044F09C
:104B700001041A0724F0F00444EA126225F00A0343
:104B800001F00A0119438261016270BD002C0140ED
:104B90000004004000080040003401400040014093
:104BA00010B5036A23F0100303628369046A23F4D7
:104BB000704343EA023224F0A00343EA0111826108
:104BC000016210BD30B5046A24F0100404628469E7
:104BD000056A24F4407444EA022222F470444FF639
:104BE000FF7202EA03322243A02425F0A00304EA64
:104BF000011119438261016230BD000030B5416E80
:104C0000B9B1026891689268C1F342610B4B520FCF
:104C10009C5CE50003F10804A25CB5FBF2F2A0F88D
:104C20006A205A5C615CD200B2FBF1F1A0F8681016
:104C300030BD0121A0F86A10F8E700002E5A0008E4
:104C400090F82810C90706D001684A68C36A22F4A0
:104C500000321A434A6090F82810890706D5016887
:104C60004A68036B22F480321A434A6090F8281095
:104C7000490706D501684A68436B22F480221A432B
:104C80004A6090F82810090706D501684A68836BC6
:104C900022F400421A434A6090F82810C90606D54B
:104CA00001688A68C36B22F480521A438A6090F8C4
:104CB0002810890606D501688A68036C22F4005220
:104CC0001A438A6090F82810490611D501684A688D
:104CD000436C22F480121A434A60416CB1F5801F84
:104CE00006D101684A68836C22F4C0021A434A6004
:104CF00090F82810090606D501684A68C06C22F4AD
:104D0000002202434A607047F8B500260446C0F806
:104D10008C60FCF779FD0546206800686FF07E47DF
:104D2000000708D52B4600224FF4001120460097BB
:104D300000F02CFC60B92068006840070AD52B46BB
:104D400000224FF480012046009700F01FFC08B1BC
:104D50000320F8BD2020C4F88400C4F8880044F87B
:104D60006C6F00202675F8BD10B5806A0021A0F890
:104D70005E10A0F85610FEF798FA10BD10B5026844
:104D800052E8001F21F4907142E80013002BF6D185
:104D90000E4B0268083252E8001F194042E8001426
:104DA000002CF6D1C16E012908D1016851E8002F0D
:104DB00022F0100241E80023002BF6D12021C0F898
:104DC00088100021C166016710BD0000FEFFFFEFE3
:104DD00010B5B0F86020D0F888300168222B04D0DC
:104DE000886940F00800886110BD496A836D1140F0
:104DF0001980816D891C8165B0F85E10491EA0F88C
:104E00005E10B0F85E100029EED1026852E8001F73
:104E100021F4907142E80013002BF6D101680831AB
:104E200051E8002F22F0010241E80023002BF5D1C8
:104E30002021C0F8881000210167C26E012A02D02B
:104E4000FEF74AFC10BDC166026852E8001F21F05F
:104E5000100142E80013002BF6D10168CA69D24361
:104E6000D20601D410220A62B0F85C10FEF7CDF928
:104E700010BD00002DE9F0470446B0F860600068FE
:104E8000C569D0F800A0D0F80880D4F8881022298D
:104E900005D0816941F008018161BDE8F087B4F86F
:104EA00068704FF0000963E02068406AA16D3040EF
:104EB0000880A06D801CA065B4F85E00401EA4F8B8
:104EC0005E002068C569690730D0E9070AD05FEA4B
:104ED000CA5107D501210162D4F88C0040F00100CD
:104EE000C4F88C00A8070BD55FEAC87008D0216809
:104EF00002200862D4F88C0040F00400C4F88C0052
:104F000068070BD55FEAC87008D0216804200862E2
:104F1000D4F88C0040F00200C4F88C00D4F88C0067
:104F200020B12046FEF7C1F9C4F88C90B4F85E00B9
:104F3000F0B9216851E8000F20F4807041E80002C8
:104F4000002AF6D1264A2068083050E8001F114098
:104F500040E80013002BF6D12020C4F88800C4F8E4
:104F60007090E16E4846012923D02046FEF7B4FB3D
:104F70000FB1A80698D4B4F85E0000288DD0B4F81C
:104F80006810814289D92068083050E8001F21F05C
:104F9000805140E80012002AF5D1124820672068AD
:104FA00050E8001F41F0200140E80012002AF6D12D
:104FB00073E7E066216851E8000F20F0100041E837
:104FC0000002002AF6D12068C169C943C90601D48C
:104FD00010210162B4F85C102046FEF716F9C7E70D
:104FE000FEFFFFEFD14D000810B5B0F86020D0F8FB
:104FF00088300168222B04D0886940F0080088615D
:1050000010BD496A1140826D1170816D491C816526
:10501000B0F85E10491EA0F85E10B0F85E100029CE
:10502000EED1026852E8001F21F4907142E80013AB
:10503000002BF6D10168083151E8002F22F001025F
:1050400041E80023002BF5D12021C0F88810002171
:105050000167C26E012A02D0FEF73EFB10BDC16699
:10506000026852E8001F21F0100142E80013002BF3
:10507000F6D10168CA69D243D20601D410220A626D
:10508000B0F85C10FEF7C1F810BD00002DE9F04744
:105090000446B0F860600068C569D0F800A0D0F898
:1050A0000880D4F88810222905D0816941F00801D0
:1050B0008161BDE8F087B4F868704FF0000963E0E3
:1050C0002068406AA16D30400870A06D401CA0654A
:1050D000B4F85E00401EA4F85E002068C569690748
:1050E00030D0E9070AD05FEACA5107D50121016231
:1050F000D4F88C0040F00100C4F88C00A8070BD550
:105100005FEAC87008D0216802200862D4F88C00D9
:1051100040F00400C4F88C0068070BD55FEAC87043
:1051200008D0216804200862D4F88C0040F0020006
:10513000C4F88C00D4F88C0020B12046FEF7B5F8F6
:10514000C4F88C90B4F85E00F0B9216851E8000F03
:1051500020F4807041E80002002AF6D1264A206837
:10516000083050E8001F114040E80013002BF6D132
:105170002020C4F88800C4F87090E16E48460129E8
:1051800023D02046FEF7A8FA0FB1A80698D4B4F8A9
:105190005E0000288DD0B4F86810814289D920685B
:1051A000083050E8001F21F0805140E80012002A2A
:1051B000F5D112482067216851E8000F40F0200027
:1051C00041E80002002AF6D173E7E066216851E861
:1051D000000F20F0100041E80002002AF6D12068FC
:1051E000C169C943C90601D410210162B4F85C1039
:1051F0002046FEF70AF8C7E7FEFFFFEFE94F000879
:105200002DE9F0410446016880682269E369104392
:10521000626900251A431043DFF82CC20A688B4BE1
:105220001A4002430A6020684168E26821F4405154
:10523000114341602168A069614501D0226A104391
:105240008A68834B1A4002438A602068C16A626A96
:1052500021F00F011143C1627E4923687E488B42D1
:105260000DD1D0F8880010F0030006D0012855D0E9
:10527000022842D003283FD152E001203DE0774987
:105280008B420BD1D0F8880010F00C0035D00428E8
:1052900033D0082840D00C282ED141E070498B42F1
:1052A0000BD1D0F8880010F0300026D0102835D06F
:1052B000202831D030281FD132E06A498B420BD1EF
:1052C000D0F8880010F0C00017D0402826D08028E1
:1052D00022D0C02810D123E063450DD1D0F888003A
:1052E00010F4406009D0B0F5806F17D0B0F5006FB2
:1052F00012D0B0F5406F13D010205B495B4F0026F1
:105300004FF4004263453BD160B1022813D004281A
:105310000BD0082872D10DE00220EEE70420ECE764
:105320000820EAE7FCF7A0FD01E0FCF7C1FD010061
:1053300001D17CE01146606A37F810206768B1FB44
:10534000F2F007EB4703834270D8B0EB073F6DD80C
:10535000002308461946FAF7BDFF090241EA106129
:1053600002027808101871413A460023FAF7B2FF9A
:105370003F4AA0F54071914258D82168C86056E074
:10538000E3694FF6EF7893422CD109284ED2DFE83B
:1053900000F00508114D0D4D4D4D1000FCF764FD5A
:1053A00001E0FCF773FD010004D140E0FCF780FD53
:1053B000F9E71146606A37F81000B1FBF0F04100E0
:1053C000606801EB5001B1FBF0F0A0F11001414524
:1053D0002CD84FF6F0710140C0F342000143206821
:1053E000C16024E0092821D2DFE800F0050912207D
:1053F0000E2020201100FCF737FD02E016E0FCF73C
:1054000045FD010004D112E0FCF752FDF9E7114619
:10541000606A37F81000B1FBF0F1606801EB5001F1
:10542000B1FBF0F0A0F1100141450AD9012501209E
:10543000A4F86A0024F8680F2846A660E660BDE874
:10544000F08180B299E7000000800040F369FFCF4F
:10545000FFF4FF11003801400010024000440040FA
:1054600000480040004C00400024F400165A000898
:10547000FFFC0F0070B58165A0F85C20A0F85E20ED
:105480000021016783684FF48055FF24AB4204D1AB
:105490000369FBB940F2FF1322E07F26C3B1B3F1E9
:1054A000805F1AD0A0F86010C0F88C102223C0F8DA
:1054B00088300368083353E8004F44F0010443E8A0
:1054C0000046002EF5D1436EB3F1005F0ED032E0FE
:1054D000036943B9A0F86040E6E703691BB13F23C5
:1054E000A0F86030E0E7A0F86060DDE7B0F8683071
:1054F000934220D88268AA4201D10269CAB11F4AE8
:10550000026780F88010016941B1026852E8001F0B
:1055100041F4807142E80013002BF6D10168083194
:1055200051E8002F42F0805241E80023002BF5D1D2
:1055300021E0134AE4E78268AA4201D102697AB104
:10554000104A026780F88010016959B1026852E878
:10555000001F41F4907142E80013002BF6D10AE0DD
:10556000094AEEE7026852E8001F41F0200142E8D4
:105570000013002BF6D1002070BD00008D500008F4
:10558000754E0008E94F0008D14D00082DE9F0479D
:105590009A4617460E4604464FF000094FF0200881
:1055A000089D4AE0681C48D0FCF72EF9A0EB0A00E1
:1055B000A8422AD84DB32068016849073DD5C06983
:1055C000C043000539D421684FF4006008622068A8
:1055D00050E8001F21F4D07140E80012002AF6D1F3
:1055E0002068083050E8001F21F0010140E8001257
:1055F000002AF5D144F8848FC4F80480C4F80880E8
:1056000004F8049C0320BDE8F087216851E8000FEE
:1056100020F4D07041E80002002AF6D1206808305A
:1056200050E8001F21F0010140E80012002AF5D1E6
:1056300044F8848FC4F80480E2E72068C06936EA41
:10564000000004D00020B842ACD00020DBE70120ED
:10565000F9E700000148FDF729BE0000AC02002078
:10566000FEE70907090E002804DB00F1E02080F8BE
:105670000014704700F00F0000F1E02080F8141DC6
:105680007047002100E0491C8142FCD3704710B5EF
:105690000446FEF7F9F8A020FEF7B7F8FEF72AF95E
:1056A0002046FEF7B2F8FEF725F9FEF708F9FEF7F7
:1056B000EBF8A120FEF7A9F8FEF71CF9FEF77EF83B
:1056C0000446FEF7C9F8FEF7FAF8204610BD70B59B
:1056D0000D460446FEF7D8F8A020FEF796F8FEF730
:1056E00009F92046FEF791F8FEF704F92846FEF77F
:1056F0008CF8FEF7FFF8BDE87040FEF7E0B8000058
:105700000EB5FCF78FF8FEF7A6FFFEF7BFFBFEF71E
:105710000DFDFEF739FCFEF785FCFEF7D1FCFEF728
:1057200051FDFEF72DFBFEF773FBFEF77FFDFEF745
:10573000E5FAFEF7DDF90020FEF732F90020FEF76A
:1057400031FA4FF6FF70FEF741FA6248FCF748FF66
:1057500000216148FDF742FC00216048FDF73EFC56
:1057600000215F48FDF7A8F900215E48FDF7A4F984
:1057700001225D495D48FDF785FF5DA16846FAF7A6
:1057800021FE69461820FEF771F95E4CDFF878A11A
:10579000DFF87891DFF878814FF00A0B00269AF84D
:1057A00002005546012807D10020FEF7F9F82078BD
:1057B00030B100202070AE70287A012802D00FE0AE
:1057C0000120F7E760780A30C0B26070642802D127
:1057D000584684F801B04049C0B2096848632E7247
:1057E000A87B01280DD1A0780A30C0B2A07064282F
:1057F00002D1584684F802B03849C0B209684863FB
:10580000AE73207800282DD139A16846FAF7DAFD69
:1058100069461820FEF72AF9B9F800203DA168462C
:10582000FAF7D0FD69463020FEF720F93D483EA149
:1058300002886846FAF7C6FD69466020FEF716F949
:105840000220FFF724FF07460120FFF720FF07EBA8
:10585000002082B238A16846FAF7B4FD694690206C
:10586000FEF704F92078012811D1627837A1684643
:10587000FAF7A8FD69463020FEF7F8F8A27836A1BD
:105880006846FAF79FFD69466020FEF7EFF8287D2D
:1058900001280ED1B9F80000010AC7B20120FFF7B4
:1058A00016FF0A20FBF770FE39460220FFF70FFFB4
:1058B0002E7598F800704546002F3FF470AF012018
:1058C000FBF762FE287887427FF469AF00F04AF860
:1058D00065E70000C80100201402002060020020DB
:1058E000300100207C01002024000020AC020020B8
:1058F00020202020202020313131206669727374ED
:1059000000000000000000203C0300202C000020CC
:105910002500002020202020202020465251313D0B
:105920002564000028000020202020202020204680
:105930005251323D256400002020656570726F6D04
:105940005F5F6672713D256400000000202020200A
:105950005041363A25640000202020205041373A3B
:105960002564000038B5134C2078002820D0162874
:1059700014D011A11248FAF725FD1148FAF734FEA8
:1059800082B232230E490F48FDF7B8FE0020207086
:10599000BDE838401E210C48FAF745BE08480B4BBD
:1059A000143000905A1F0AA10748FAF78FFDEDE75F
:1059B00038BD0000250000206572726F7200000083
:1059C00034000020AC020020540300200800002016
:1059D0002534733A2534733A2531327300000000C0
:1059E00010B500290AD00878002807D00548784467
:1059F000FBF71CF9002801D0002010BD02487844B4
:105A000010BD00005A120000521200004FF040700A
:105A1000E1EE100A704701000200040006000800D1
:105A20000A000C001000200040008000000101016D
:105A3000010307010000080402040801010100003D
:105A4000000000000000010203040607080900002E
:105A5000000001020304000000000000000000003C
:105A60000000000000000000000000000000000036
:105A70000000000000000000000000000000000026
:105A80000000000000000000800180018001800112
:105A900080018001800180018001800180018001FE
:105AA0008001000000008001800100000000000073
:105AB00000000000000000000000CC00CC00CC0082
:105AC000CC00CC00CC000000000000000000000072
:105AD00000000000000000000000000000000000C6
